{
  "_format": "hh-sol-artifact-1",
  "contractName": "SimpleSwap",
  "sourceName": "contracts/SimpleSwap.sol",
  "abi": [
    {
      "inputs": [
        {
          "internalType": "address",
          "name": "_tokenA",
          "type": "address"
        },
        {
          "internalType": "address",
          "name": "_tokenB",
          "type": "address"
        }
      ],
      "stateMutability": "nonpayable",
      "type": "constructor"
    },
    {
      "anonymous": false,
      "inputs": [
        {
          "indexed": true,
          "internalType": "address",
          "name": "sender",
          "type": "address"
        },
        {
          "indexed": false,
          "internalType": "uint256",
          "name": "amountA",
          "type": "uint256"
        },
        {
          "indexed": false,
          "internalType": "uint256",
          "name": "amountB",
          "type": "uint256"
        },
        {
          "indexed": false,
          "internalType": "uint256",
          "name": "liquidity",
          "type": "uint256"
        }
      ],
      "name": "AddLiquidity",
      "type": "event"
    },
    {
      "anonymous": false,
      "inputs": [
        {
          "indexed": true,
          "internalType": "address",
          "name": "owner",
          "type": "address"
        },
        {
          "indexed": true,
          "internalType": "address",
          "name": "spender",
          "type": "address"
        },
        {
          "indexed": false,
          "internalType": "uint256",
          "name": "value",
          "type": "uint256"
        }
      ],
      "name": "Approval",
      "type": "event"
    },
    {
      "anonymous": false,
      "inputs": [
        {
          "indexed": true,
          "internalType": "address",
          "name": "previousOwner",
          "type": "address"
        },
        {
          "indexed": true,
          "internalType": "address",
          "name": "newOwner",
          "type": "address"
        }
      ],
      "name": "OwnershipTransferred",
      "type": "event"
    },
    {
      "anonymous": false,
      "inputs": [
        {
          "indexed": true,
          "internalType": "address",
          "name": "sender",
          "type": "address"
        },
        {
          "indexed": false,
          "internalType": "uint256",
          "name": "amountA",
          "type": "uint256"
        },
        {
          "indexed": false,
          "internalType": "uint256",
          "name": "amountB",
          "type": "uint256"
        },
        {
          "indexed": false,
          "internalType": "uint256",
          "name": "liquidity",
          "type": "uint256"
        }
      ],
      "name": "RemoveLiquidity",
      "type": "event"
    },
    {
      "anonymous": false,
      "inputs": [
        {
          "indexed": true,
          "internalType": "address",
          "name": "sender",
          "type": "address"
        },
        {
          "indexed": true,
          "internalType": "address",
          "name": "tokenIn",
          "type": "address"
        },
        {
          "indexed": true,
          "internalType": "address",
          "name": "tokenOut",
          "type": "address"
        },
        {
          "indexed": false,
          "internalType": "uint256",
          "name": "amountIn",
          "type": "uint256"
        },
        {
          "indexed": false,
          "internalType": "uint256",
          "name": "amountOut",
          "type": "uint256"
        }
      ],
      "name": "Swap",
      "type": "event"
    },
    {
      "anonymous": false,
      "inputs": [
        {
          "indexed": true,
          "internalType": "address",
          "name": "from",
          "type": "address"
        },
        {
          "indexed": true,
          "internalType": "address",
          "name": "to",
          "type": "address"
        },
        {
          "indexed": false,
          "internalType": "uint256",
          "name": "value",
          "type": "uint256"
        }
      ],
      "name": "Transfer",
      "type": "event"
    },
    {
      "inputs": [
        {
          "internalType": "bool",
          "name": "add",
          "type": "bool"
        },
        {
          "internalType": "uint256",
          "name": "amountA",
          "type": "uint256"
        },
        {
          "internalType": "uint256",
          "name": "amountB",
          "type": "uint256"
        }
      ],
      "name": "_updateReservesAndK",
      "outputs": [],
      "stateMutability": "nonpayable",
      "type": "function"
    },
    {
      "inputs": [
        {
          "internalType": "uint256",
          "name": "amountAIn",
          "type": "uint256"
        },
        {
          "internalType": "uint256",
          "name": "amountBIn",
          "type": "uint256"
        }
      ],
      "name": "addLiquidity",
      "outputs": [
        {
          "internalType": "uint256",
          "name": "amountA",
          "type": "uint256"
        },
        {
          "internalType": "uint256",
          "name": "amountB",
          "type": "uint256"
        },
        {
          "internalType": "uint256",
          "name": "liquidity",
          "type": "uint256"
        }
      ],
      "stateMutability": "nonpayable",
      "type": "function"
    },
    {
      "inputs": [
        {
          "internalType": "address",
          "name": "owner",
          "type": "address"
        },
        {
          "internalType": "address",
          "name": "spender",
          "type": "address"
        }
      ],
      "name": "allowance",
      "outputs": [
        {
          "internalType": "uint256",
          "name": "",
          "type": "uint256"
        }
      ],
      "stateMutability": "view",
      "type": "function"
    },
    {
      "inputs": [
        {
          "internalType": "address",
          "name": "spender",
          "type": "address"
        },
        {
          "internalType": "uint256",
          "name": "amount",
          "type": "uint256"
        }
      ],
      "name": "approve",
      "outputs": [
        {
          "internalType": "bool",
          "name": "",
          "type": "bool"
        }
      ],
      "stateMutability": "nonpayable",
      "type": "function"
    },
    {
      "inputs": [
        {
          "internalType": "address",
          "name": "account",
          "type": "address"
        }
      ],
      "name": "balanceOf",
      "outputs": [
        {
          "internalType": "uint256",
          "name": "",
          "type": "uint256"
        }
      ],
      "stateMutability": "view",
      "type": "function"
    },
    {
      "inputs": [
        {
          "internalType": "address",
          "name": "newOwner",
          "type": "address"
        }
      ],
      "name": "changeOwner",
      "outputs": [
        {
          "internalType": "bool",
          "name": "",
          "type": "bool"
        }
      ],
      "stateMutability": "nonpayable",
      "type": "function"
    },
    {
      "inputs": [],
      "name": "decimals",
      "outputs": [
        {
          "internalType": "uint8",
          "name": "",
          "type": "uint8"
        }
      ],
      "stateMutability": "view",
      "type": "function"
    },
    {
      "inputs": [
        {
          "internalType": "address",
          "name": "spender",
          "type": "address"
        },
        {
          "internalType": "uint256",
          "name": "subtractedValue",
          "type": "uint256"
        }
      ],
      "name": "decreaseAllowance",
      "outputs": [
        {
          "internalType": "bool",
          "name": "",
          "type": "bool"
        }
      ],
      "stateMutability": "nonpayable",
      "type": "function"
    },
    {
      "inputs": [],
      "name": "getReserves",
      "outputs": [
        {
          "internalType": "uint256",
          "name": "",
          "type": "uint256"
        },
        {
          "internalType": "uint256",
          "name": "",
          "type": "uint256"
        }
      ],
      "stateMutability": "view",
      "type": "function"
    },
    {
      "inputs": [],
      "name": "getTokenA",
      "outputs": [
        {
          "internalType": "address",
          "name": "",
          "type": "address"
        }
      ],
      "stateMutability": "view",
      "type": "function"
    },
    {
      "inputs": [],
      "name": "getTokenB",
      "outputs": [
        {
          "internalType": "address",
          "name": "",
          "type": "address"
        }
      ],
      "stateMutability": "view",
      "type": "function"
    },
    {
      "inputs": [
        {
          "internalType": "address",
          "name": "spender",
          "type": "address"
        },
        {
          "internalType": "uint256",
          "name": "addedValue",
          "type": "uint256"
        }
      ],
      "name": "increaseAllowance",
      "outputs": [
        {
          "internalType": "bool",
          "name": "",
          "type": "bool"
        }
      ],
      "stateMutability": "nonpayable",
      "type": "function"
    },
    {
      "inputs": [],
      "name": "name",
      "outputs": [
        {
          "internalType": "string",
          "name": "",
          "type": "string"
        }
      ],
      "stateMutability": "view",
      "type": "function"
    },
    {
      "inputs": [],
      "name": "owner",
      "outputs": [
        {
          "internalType": "address",
          "name": "",
          "type": "address"
        }
      ],
      "stateMutability": "view",
      "type": "function"
    },
    {
      "inputs": [
        {
          "internalType": "uint256",
          "name": "liquidity",
          "type": "uint256"
        }
      ],
      "name": "removeLiquidity",
      "outputs": [
        {
          "internalType": "uint256",
          "name": "amountA",
          "type": "uint256"
        },
        {
          "internalType": "uint256",
          "name": "amountB",
          "type": "uint256"
        }
      ],
      "stateMutability": "nonpayable",
      "type": "function"
    },
    {
      "inputs": [],
      "name": "renounceOwnership",
      "outputs": [],
      "stateMutability": "nonpayable",
      "type": "function"
    },
    {
      "inputs": [
        {
          "internalType": "address",
          "name": "tokenIn",
          "type": "address"
        },
        {
          "internalType": "address",
          "name": "tokenOut",
          "type": "address"
        },
        {
          "internalType": "uint256",
          "name": "amountIn",
          "type": "uint256"
        }
      ],
      "name": "swap",
      "outputs": [
        {
          "internalType": "uint256",
          "name": "amountOut",
          "type": "uint256"
        }
      ],
      "stateMutability": "nonpayable",
      "type": "function"
    },
    {
      "inputs": [],
      "name": "symbol",
      "outputs": [
        {
          "internalType": "string",
          "name": "",
          "type": "string"
        }
      ],
      "stateMutability": "view",
      "type": "function"
    },
    {
      "inputs": [],
      "name": "tokenA",
      "outputs": [
        {
          "internalType": "address",
          "name": "",
          "type": "address"
        }
      ],
      "stateMutability": "view",
      "type": "function"
    },
    {
      "inputs": [],
      "name": "tokenB",
      "outputs": [
        {
          "internalType": "address",
          "name": "",
          "type": "address"
        }
      ],
      "stateMutability": "view",
      "type": "function"
    },
    {
      "inputs": [],
      "name": "totalSupply",
      "outputs": [
        {
          "internalType": "uint256",
          "name": "",
          "type": "uint256"
        }
      ],
      "stateMutability": "view",
      "type": "function"
    },
    {
      "inputs": [
        {
          "internalType": "address",
          "name": "to",
          "type": "address"
        },
        {
          "internalType": "uint256",
          "name": "amount",
          "type": "uint256"
        }
      ],
      "name": "transfer",
      "outputs": [
        {
          "internalType": "bool",
          "name": "",
          "type": "bool"
        }
      ],
      "stateMutability": "nonpayable",
      "type": "function"
    },
    {
      "inputs": [
        {
          "internalType": "address",
          "name": "from",
          "type": "address"
        },
        {
          "internalType": "address",
          "name": "to",
          "type": "address"
        },
        {
          "internalType": "uint256",
          "name": "amount",
          "type": "uint256"
        }
      ],
      "name": "transferFrom",
      "outputs": [
        {
          "internalType": "bool",
          "name": "",
          "type": "bool"
        }
      ],
      "stateMutability": "nonpayable",
      "type": "function"
    },
    {
      "inputs": [
        {
          "internalType": "address",
          "name": "newOwner",
          "type": "address"
        }
      ],
      "name": "transferOwnership",
      "outputs": [],
      "stateMutability": "nonpayable",
      "type": "function"
    }
  ],
  "bytecode": "0x60806040523480156200001157600080fd5b506040516200216b3803806200216b8339810160408190526200003491620002d7565b6040518060400160405280601381526020017f53696d706c6553776170204c5020546f6b656e00000000000000000000000000815250604051806040016040528060038152602001620534c560ec1b8152508160039081620000979190620003b4565b506004620000a68282620003b4565b5050600160055550620000b93362000259565b620000cf82620002ab60201b62000f051760201c565b6200012c5760405162461bcd60e51b815260206004820152602260248201527f53696d706c65537761703a20544f4b454e415f49535f4e4f545f434f4e54524160448201526110d560f21b60648201526084015b60405180910390fd5b6200014281620002ab60201b62000f051760201c565b6200019b5760405162461bcd60e51b815260206004820152602260248201527f53696d706c65537761703a20544f4b454e425f49535f4e4f545f434f4e54524160448201526110d560f21b606482015260840162000123565b806001600160a01b0316826001600160a01b031603620002125760405162461bcd60e51b815260206004820152602b60248201527f53696d706c65537761703a20544f4b454e415f544f4b454e425f4944454e544960448201526a43414c5f4144445245535360a81b606482015260840162000123565b600780546001600160a01b031990811633179091556000600a819055600b55600880546001600160a01b039485169083161790556009805492909316911617905562000480565b600680546001600160a01b038381166001600160a01b0319831681179093556040519116919082907f8be0079c531659141344cd1fd0a4f28419497f9722a3daafe3b4186f6b6457e090600090a35050565b6001600160a01b03163b151590565b80516001600160a01b0381168114620002d257600080fd5b919050565b60008060408385031215620002eb57600080fd5b620002f683620002ba565b91506200030660208401620002ba565b90509250929050565b634e487b7160e01b600052604160045260246000fd5b600181811c908216806200033a57607f821691505b6020821081036200035b57634e487b7160e01b600052602260045260246000fd5b50919050565b601f821115620003af57600081815260208120601f850160051c810160208610156200038a5750805b601f850160051c820191505b81811015620003ab5782815560010162000396565b5050505b505050565b81516001600160401b03811115620003d057620003d06200030f565b620003e881620003e1845462000325565b8462000361565b602080601f831160018114620004205760008415620004075750858301515b600019600386901b1c1916600185901b178555620003ab565b600085815260208120601f198616915b82811015620004515788860151825594840194600190910190840162000430565b5085821015620004705787850151600019600388901b60f8161c191681555b5050505050600190811b01905550565b611cdb80620004906000396000f3fe608060405234801561001057600080fd5b50600436106101575760003560e01c8063715018a6116100c3578063a6f9dae11161007c578063a6f9dae1146102f3578063a9059cbb14610306578063ae0ba2fb14610319578063dd62ed3e1461032a578063df791e501461033d578063f2fde38b1461035057600080fd5b8063715018a61461027e5780638da5cb5b1461028657806395d89b41146102975780639c8f9f231461029f5780639cd441da146102b2578063a457c2d7146102e057600080fd5b806318160ddd1161011557806318160ddd146101fb57806323b872dd1461020d578063313ce56714610220578063395093511461022f5780635f64b55b1461024257806370a082311461025557600080fd5b8062f740741461015c57806306fdde03146101715780630902f1ac1461018f578063095ea7b3146101ab5780630f0148ea146101ce5780630fc63d10146101e8575b600080fd5b61016f61016a36600461196a565b610363565b005b6101796103f0565b60405161018691906119c3565b60405180910390f35b600a54600b545b60408051928352602083019190915201610186565b6101be6101b9366004611a0d565b610482565b6040519015158152602001610186565b6009546001600160a01b03165b6040516101869190611a37565b6008546101db906001600160a01b031681565b6002545b604051908152602001610186565b6101be61021b366004611a4b565b61049c565b60405160128152602001610186565b6101be61023d366004611a0d565b6104c2565b6009546101db906001600160a01b031681565b6101ff610263366004611a87565b6001600160a01b031660009081526020819052604090205490565b61016f6104e4565b6006546001600160a01b03166101db565b6101796104f8565b6101966102ad366004611aa2565b610507565b6102c56102c0366004611abb565b61071c565b60408051938452602084019290925290820152606001610186565b6101be6102ee366004611a0d565b6108f6565b6101be610301366004611a87565b61097c565b6101be610314366004611a0d565b6109aa565b6008546001600160a01b03166101db565b6101ff610338366004611add565b6109b8565b6101ff61034b366004611a4b565b6109e3565b61016f61035e366004611a87565b610e8c565b61036b610f14565b82156103a75781600a60008282546103839190611b26565b9250508190555080600b600082825461039c9190611b26565b909155506103d89050565b81600a60008282546103b99190611b39565b9250508190555080600b60008282546103d29190611b39565b90915550505b600b54600a546103e89190611b4c565b600c55505050565b6060600380546103ff90611b63565b80601f016020809104026020016040519081016040528092919081815260200182805461042b90611b63565b80156104785780601f1061044d57610100808354040283529160200191610478565b820191906000526020600020905b81548152906001019060200180831161045b57829003601f168201915b5050505050905090565b600033610490818585610f6e565b60019150505b92915050565b6000336104aa858285611093565b6104b585858561110d565b60019150505b9392505050565b6000336104908185856104d583836109b8565b6104df9190611b26565b610f6e565b6104ec610f14565b6104f6600061129f565b565b6060600480546103ff90611b63565b6000806105126112f1565b600083116105795760405162461bcd60e51b815260206004820152602960248201527f53696d706c65537761703a20494e53554646494349454e545f4c495155494449604482015268151657d0955493915160ba1b60648201526084015b60405180910390fd5b600061058460025490565b905080600a54856105959190611b4c565b61059f9190611bb3565b925080600b54856105b09190611b4c565b6105ba9190611bb3565b91506105c860008484610363565b6105d333308661110d565b60085460405163a9059cbb60e01b81526001600160a01b039091169063a9059cbb906106059033908790600401611bd5565b6020604051808303816000875af1158015610624573d6000803e3d6000fd5b505050506040513d601f19601f820116820180604052508101906106489190611bee565b5060095460405163a9059cbb60e01b81526001600160a01b039091169063a9059cbb9061067b9033908690600401611bd5565b6020604051808303816000875af115801561069a573d6000803e3d6000fd5b505050506040513d601f19601f820116820180604052508101906106be9190611bee565b506106c9308561134a565b604080518481526020810184905290810185905233907f59c3a0b60c6ab7deb62e1440c9e72441db6db7dfe514dba8cb18e60c0d896efa9060600160405180910390a2506107176001600555565b915091565b60008060006107296112f1565b6000851180156107395750600084115b6107555760405162461bcd60e51b815260040161057090611c0b565b600061076060025490565b9050806000036107895761077c6107778688611b4c565b611467565b91508593508492506107f9565b600a546107c09061079a8389611b4c565b6107a49190611bb3565b600b546107b18489611b4c565b6107bb9190611bb3565b61154b565b915080600a54836107d19190611b4c565b6107db9190611bb3565b935080600b54836107ec9190611b4c565b6107f69190611bb3565b92505b6000821161085b5760405162461bcd60e51b815260206004820152602960248201527f53696d706c65537761703a20494e53554646494349454e545f4c495155494449604482015268151657d3525395115160ba1b6064820152608401610570565b61086760018585610363565b60085461087f906001600160a01b0316333087611561565b600954610897906001600160a01b0316333086611561565b6108a133836115bb565b604080518581526020810185905290810183905233907fbeb3885786d637a474cbc287c0a44587231633a077f0bd30354d5a4b18996fce9060600160405180910390a2506108ef6001600555565b9250925092565b6000338161090482866109b8565b9050838110156109645760405162461bcd60e51b815260206004820152602560248201527f45524332303a2064656372656173656420616c6c6f77616e63652062656c6f77604482015264207a65726f60d81b6064820152608401610570565b6109718286868403610f6e565b506001949350505050565b6000610986610f14565b50600780546001600160a01b0319166001600160a01b03831617905560015b919050565b60003361049081858561110d565b6001600160a01b03918216600090815260016020908152604080832093909416825291909152205490565b60006109ed6112f1565b6008546001600160a01b0385811691161480610a1657506009546001600160a01b038581169116145b610a625760405162461bcd60e51b815260206004820152601c60248201527f53696d706c65537761703a20494e56414c49445f544f4b454e5f494e000000006044820152606401610570565b6008546001600160a01b0384811691161480610a8b57506009546001600160a01b038481169116145b610ad75760405162461bcd60e51b815260206004820152601d60248201527f53696d706c65537761703a20494e56414c49445f544f4b454e5f4f55540000006044820152606401610570565b826001600160a01b0316846001600160a01b031603610b385760405162461bcd60e51b815260206004820152601d60248201527f53696d706c65537761703a204944454e544943414c5f414444524553530000006044820152606401610570565b60008211610b585760405162461bcd60e51b815260040161057090611c0b565b6040516370a0823160e01b81526000906001600160a01b038616906370a0823190610b87903090600401611a37565b602060405180830381865afa158015610ba4573d6000803e3d6000fd5b505050506040513d601f19601f82011682018060405250810190610bc89190611c50565b90506000846001600160a01b03166370a08231306040518263ffffffff1660e01b8152600401610bf89190611a37565b602060405180830381865afa158015610c15573d6000803e3d6000fd5b505050506040513d601f19601f82011682018060405250810190610c399190611c50565b90506000610c478584611b26565b905080600c548383610c599190611b4c565b610c639190611b39565b610c6d9190611bb3565b935060008411610cce5760405162461bcd60e51b815260206004820152602660248201527f53696d706c65537761703a20494e53554646494349454e545f4f55545055545f604482015265105353d5539560d21b6064820152608401610570565b610cda87333088611561565b60405163a9059cbb60e01b81526001600160a01b0387169063a9059cbb90610d089033908890600401611bd5565b6020604051808303816000875af1158015610d27573d6000803e3d6000fd5b505050506040513d601f19601f82011682018060405250810190610d4b9190611bee565b506008546040516370a0823160e01b81526001600160a01b03909116906370a0823190610d7c903090600401611a37565b602060405180830381865afa158015610d99573d6000803e3d6000fd5b505050506040513d601f19601f82011682018060405250810190610dbd9190611c50565b600a556009546040516370a0823160e01b81526001600160a01b03909116906370a0823190610df0903090600401611a37565b602060405180830381865afa158015610e0d573d6000803e3d6000fd5b505050506040513d601f19601f82011682018060405250810190610e319190611c50565b600b5560408051868152602081018690526001600160a01b0380891692908a169133917fcd3829a3813dc3cdd188fd3d01dcf3268c16be2fdd2dd21d0665418816e46062910160405180910390a45050506104bb6001600555565b610e94610f14565b6001600160a01b038116610ef95760405162461bcd60e51b815260206004820152602660248201527f4f776e61626c653a206e6577206f776e657220697320746865207a65726f206160448201526564647265737360d01b6064820152608401610570565b610f028161129f565b50565b6001600160a01b03163b151590565b6006546001600160a01b031633146104f65760405162461bcd60e51b815260206004820181905260248201527f4f776e61626c653a2063616c6c6572206973206e6f7420746865206f776e65726044820152606401610570565b6001600160a01b038316610fd05760405162461bcd60e51b8152602060048201526024808201527f45524332303a20617070726f76652066726f6d20746865207a65726f206164646044820152637265737360e01b6064820152608401610570565b6001600160a01b0382166110315760405162461bcd60e51b815260206004820152602260248201527f45524332303a20617070726f766520746f20746865207a65726f206164647265604482015261737360f01b6064820152608401610570565b6001600160a01b0383811660008181526001602090815260408083209487168084529482529182902085905590518481527f8c5be1e5ebec7d5bd14f71427d1e84f3dd0314c0f7b2291e5b200ac8c7c3b92591015b60405180910390a3505050565b600061109f84846109b8565b9050600019811461110757818110156110fa5760405162461bcd60e51b815260206004820152601d60248201527f45524332303a20696e73756666696369656e7420616c6c6f77616e63650000006044820152606401610570565b6111078484848403610f6e565b50505050565b6001600160a01b0383166111715760405162461bcd60e51b815260206004820152602560248201527f45524332303a207472616e736665722066726f6d20746865207a65726f206164604482015264647265737360d81b6064820152608401610570565b6001600160a01b0382166111d35760405162461bcd60e51b815260206004820152602360248201527f45524332303a207472616e7366657220746f20746865207a65726f206164647260448201526265737360e81b6064820152608401610570565b6001600160a01b0383166000908152602081905260409020548181101561124b5760405162461bcd60e51b815260206004820152602660248201527f45524332303a207472616e7366657220616d6f756e7420657863656564732062604482015265616c616e636560d01b6064820152608401610570565b6001600160a01b0384811660008181526020818152604080832087870390559387168083529184902080548701905592518581529092600080516020611c86833981519152910160405180910390a3611107565b600680546001600160a01b038381166001600160a01b0319831681179093556040519116919082907f8be0079c531659141344cd1fd0a4f28419497f9722a3daafe3b4186f6b6457e090600090a35050565b6002600554036113435760405162461bcd60e51b815260206004820152601f60248201527f5265656e7472616e637947756172643a207265656e7472616e742063616c6c006044820152606401610570565b6002600555565b6001600160a01b0382166113aa5760405162461bcd60e51b815260206004820152602160248201527f45524332303a206275726e2066726f6d20746865207a65726f206164647265736044820152607360f81b6064820152608401610570565b6001600160a01b0382166000908152602081905260409020548181101561141e5760405162461bcd60e51b815260206004820152602260248201527f45524332303a206275726e20616d6f756e7420657863656564732062616c616e604482015261636560f01b6064820152608401610570565b6001600160a01b038316600081815260208181526040808320868603905560028054879003905551858152919291600080516020611c868339815191529101611086565b505050565b60008160000361147957506000919050565b6000600161148684611668565b901c6001901b9050600181848161149f5761149f611b9d565b048201901c905060018184816114b7576114b7611b9d565b048201901c905060018184816114cf576114cf611b9d565b048201901c905060018184816114e7576114e7611b9d565b048201901c905060018184816114ff576114ff611b9d565b048201901c9050600181848161151757611517611b9d565b048201901c9050600181848161152f5761152f611b9d565b048201901c90506104bb8182858161154957611549611b9d565b045b600081831061155a57816104bb565b5090919050565b604080516001600160a01b0385811660248301528416604482015260648082018490528251808303909101815260849091019091526020810180516001600160e01b03166323b872dd60e01b1790526111079085906116fc565b6001600160a01b0382166116115760405162461bcd60e51b815260206004820152601f60248201527f45524332303a206d696e7420746f20746865207a65726f2061646472657373006044820152606401610570565b80600260008282546116239190611b26565b90915550506001600160a01b03821660008181526020818152604080832080548601905551848152600080516020611c86833981519152910160405180910390a35050565b600080608083901c1561167d57608092831c92015b604083901c1561168f57604092831c92015b602083901c156116a157602092831c92015b601083901c156116b357601092831c92015b600883901c156116c557600892831c92015b600483901c156116d757600492831c92015b600283901c156116e957600292831c92015b600183901c156104965760010192915050565b6000611751826040518060400160405280602081526020017f5361666545524332303a206c6f772d6c6576656c2063616c6c206661696c6564815250856001600160a01b03166117ce9092919063ffffffff16565b805190915015611462578080602001905181019061176f9190611bee565b6114625760405162461bcd60e51b815260206004820152602a60248201527f5361666545524332303a204552433230206f7065726174696f6e20646964206e6044820152691bdd081cdd58d8d9595960b21b6064820152608401610570565b60606117dd84846000856117e5565b949350505050565b6060824710156118465760405162461bcd60e51b815260206004820152602660248201527f416464726573733a20696e73756666696369656e742062616c616e636520666f6044820152651c8818d85b1b60d21b6064820152608401610570565b600080866001600160a01b031685876040516118629190611c69565b60006040518083038185875af1925050503d806000811461189f576040519150601f19603f3d011682016040523d82523d6000602084013e6118a4565b606091505b50915091506118b5878383876118c0565b979650505050505050565b6060831561192d578251600003611926576118da85610f05565b6119265760405162461bcd60e51b815260206004820152601d60248201527f416464726573733a2063616c6c20746f206e6f6e2d636f6e74726163740000006044820152606401610570565b50816117dd565b6117dd83838151156119425781518083602001fd5b8060405162461bcd60e51b815260040161057091906119c3565b8015158114610f0257600080fd5b60008060006060848603121561197f57600080fd5b833561198a8161195c565b95602085013595506040909401359392505050565b60005b838110156119ba5781810151838201526020016119a2565b50506000910152565b60208152600082518060208401526119e281604085016020870161199f565b601f01601f19169190910160400192915050565b80356001600160a01b03811681146109a557600080fd5b60008060408385031215611a2057600080fd5b611a29836119f6565b946020939093013593505050565b6001600160a01b0391909116815260200190565b600080600060608486031215611a6057600080fd5b611a69846119f6565b9250611a77602085016119f6565b9150604084013590509250925092565b600060208284031215611a9957600080fd5b6104bb826119f6565b600060208284031215611ab457600080fd5b5035919050565b60008060408385031215611ace57600080fd5b50508035926020909101359150565b60008060408385031215611af057600080fd5b611af9836119f6565b9150611b07602084016119f6565b90509250929050565b634e487b7160e01b600052601160045260246000fd5b8082018082111561049657610496611b10565b8181038181111561049657610496611b10565b808202811582820484141761049657610496611b10565b600181811c90821680611b7757607f821691505b602082108103611b9757634e487b7160e01b600052602260045260246000fd5b50919050565b634e487b7160e01b600052601260045260246000fd5b600082611bd057634e487b7160e01b600052601260045260246000fd5b500490565b6001600160a01b03929092168252602082015260400190565b600060208284031215611c0057600080fd5b81516104bb8161195c565b60208082526025908201527f53696d706c65537761703a20494e53554646494349454e545f494e5055545f416040820152641353d5539560da1b606082015260800190565b600060208284031215611c6257600080fd5b5051919050565b60008251611c7b81846020870161199f565b919091019291505056feddf252ad1be2c89b69c2b068fc378daa952ba7f163c4a11628f55a4df523b3efa26469706673582212202e66f341d4c934fcea323dc7379c78e86a142f43831a75eeed43e63e08a3fdc164736f6c63430008110033",
  "linkReferences": {},
  "deployedLinkReferences": {}
}