{"contracts/SimpleSwap.sol":{"SimpleSwap":{"abi":[{"inputs":[{"internalType":"address","name":"_tokenA","type":"address"},{"internalType":"address","name":"_tokenB","type":"address"}],"stateMutability":"nonpayable","type":"constructor"},{"anonymous":false,"inputs":[{"indexed":true,"internalType":"address","name":"sender","type":"address"},{"indexed":false,"internalType":"uint256","name":"amountA","type":"uint256"},{"indexed":false,"internalType":"uint256","name":"amountB","type":"uint256"},{"indexed":false,"internalType":"uint256","name":"liquidity","type":"uint256"}],"name":"AddLiquidity","type":"event"},{"anonymous":false,"inputs":[{"indexed":true,"internalType":"address","name":"owner","type":"address"},{"indexed":true,"internalType":"address","name":"spender","type":"address"},{"indexed":false,"internalType":"uint256","name":"value","type":"uint256"}],"name":"Approval","type":"event"},{"anonymous":false,"inputs":[{"indexed":true,"internalType":"address","name":"sender","type":"address"},{"indexed":false,"internalType":"uint256","name":"amountA","type":"uint256"},{"indexed":false,"internalType":"uint256","name":"amountB","type":"uint256"},{"indexed":false,"internalType":"uint256","name":"liquidity","type":"uint256"}],"name":"RemoveLiquidity","type":"event"},{"anonymous":false,"inputs":[{"indexed":true,"internalType":"address","name":"sender","type":"address"},{"indexed":true,"internalType":"address","name":"tokenIn","type":"address"},{"indexed":true,"internalType":"address","name":"tokenOut","type":"address"},{"indexed":false,"internalType":"uint256","name":"amountIn","type":"uint256"},{"indexed":false,"internalType":"uint256","name":"amountOut","type":"uint256"}],"name":"Swap","type":"event"},{"anonymous":false,"inputs":[{"indexed":true,"internalType":"address","name":"from","type":"address"},{"indexed":true,"internalType":"address","name":"to","type":"address"},{"indexed":false,"internalType":"uint256","name":"value","type":"uint256"}],"name":"Transfer","type":"event"},{"inputs":[{"internalType":"uint256","name":"amountAIn","type":"uint256"},{"internalType":"uint256","name":"amountBIn","type":"uint256"}],"name":"addLiquidity","outputs":[{"internalType":"uint256","name":"amountA","type":"uint256"},{"internalType":"uint256","name":"amountB","type":"uint256"},{"internalType":"uint256","name":"liquidity","type":"uint256"}],"stateMutability":"nonpayable","type":"function"},{"inputs":[{"internalType":"address","name":"owner","type":"address"},{"internalType":"address","name":"spender","type":"address"}],"name":"allowance","outputs":[{"internalType":"uint256","name":"","type":"uint256"}],"stateMutability":"view","type":"function"},{"inputs":[{"internalType":"address","name":"spender","type":"address"},{"internalType":"uint256","name":"amount","type":"uint256"}],"name":"approve","outputs":[{"internalType":"bool","name":"","type":"bool"}],"stateMutability":"nonpayable","type":"function"},{"inputs":[{"internalType":"address","name":"account","type":"address"}],"name":"balanceOf","outputs":[{"internalType":"uint256","name":"","type":"uint256"}],"stateMutability":"view","type":"function"},{"inputs":[],"name":"decimals","outputs":[{"internalType":"uint8","name":"","type":"uint8"}],"stateMutability":"view","type":"function"},{"inputs":[{"internalType":"address","name":"spender","type":"address"},{"internalType":"uint256","name":"subtractedValue","type":"uint256"}],"name":"decreaseAllowance","outputs":[{"internalType":"bool","name":"","type":"bool"}],"stateMutability":"nonpayable","type":"function"},{"inputs":[],"name":"getReserves","outputs":[{"internalType":"uint256","name":"","type":"uint256"},{"internalType":"uint256","name":"","type":"uint256"}],"stateMutability":"view","type":"function"},{"inputs":[],"name":"getTokenA","outputs":[{"internalType":"address","name":"","type":"address"}],"stateMutability":"view","type":"function"},{"inputs":[],"name":"getTokenB","outputs":[{"internalType":"address","name":"","type":"address"}],"stateMutability":"view","type":"function"},{"inputs":[{"internalType":"address","name":"spender","type":"address"},{"internalType":"uint256","name":"addedValue","type":"uint256"}],"name":"increaseAllowance","outputs":[{"internalType":"bool","name":"","type":"bool"}],"stateMutability":"nonpayable","type":"function"},{"inputs":[],"name":"name","outputs":[{"internalType":"string","name":"","type":"string"}],"stateMutability":"view","type":"function"},{"inputs":[{"internalType":"uint256","name":"liquidity","type":"uint256"}],"name":"removeLiquidity","outputs":[{"internalType":"uint256","name":"amountA","type":"uint256"},{"internalType":"uint256","name":"amountB","type":"uint256"}],"stateMutability":"nonpayable","type":"function"},{"inputs":[{"internalType":"address","name":"tokenIn","type":"address"},{"internalType":"address","name":"tokenOut","type":"address"},{"internalType":"uint256","name":"amountIn","type":"uint256"}],"name":"swap","outputs":[{"internalType":"uint256","name":"amountOut","type":"uint256"}],"stateMutability":"nonpayable","type":"function"},{"inputs":[],"name":"symbol","outputs":[{"internalType":"string","name":"","type":"string"}],"stateMutability":"view","type":"function"},{"inputs":[],"name":"tokenA","outputs":[{"internalType":"address","name":"","type":"address"}],"stateMutability":"view","type":"function"},{"inputs":[],"name":"tokenB","outputs":[{"internalType":"address","name":"","type":"address"}],"stateMutability":"view","type":"function"},{"inputs":[],"name":"totalSupply","outputs":[{"internalType":"uint256","name":"","type":"uint256"}],"stateMutability":"view","type":"function"},{"inputs":[{"internalType":"address","name":"to","type":"address"},{"internalType":"uint256","name":"amount","type":"uint256"}],"name":"transfer","outputs":[{"internalType":"bool","name":"","type":"bool"}],"stateMutability":"nonpayable","type":"function"},{"inputs":[{"internalType":"address","name":"from","type":"address"},{"internalType":"address","name":"to","type":"address"},{"internalType":"uint256","name":"amount","type":"uint256"}],"name":"transferFrom","outputs":[{"internalType":"bool","name":"","type":"bool"}],"stateMutability":"nonpayable","type":"function"}],"evm":{"bytecode":{"linkReferences":{},"object":"60806040523480156200001157600080fd5b5060405162001ec738038062001ec7833981016040819052620000349162000272565b6040518060400160405280601381526020017f53696d706c6553776170204c5020546f6b656e00000000000000000000000000815250604051806040016040528060038152602001620534c560ec1b81525081600390816200009791906200034f565b506004620000a682826200034f565b5050506001600581905550620000c7826200024660201b62000cf71760201c565b620001245760405162461bcd60e51b815260206004820152602260248201527f53696d706c65537761703a20544f4b454e415f49535f4e4f545f434f4e54524160448201526110d560f21b60648201526084015b60405180910390fd5b6200013a816200024660201b62000cf71760201c565b620001935760405162461bcd60e51b815260206004820152602260248201527f53696d706c65537761703a20544f4b454e425f49535f4e4f545f434f4e54524160448201526110d560f21b60648201526084016200011b565b806001600160a01b0316826001600160a01b0316036200020a5760405162461bcd60e51b815260206004820152602b60248201527f53696d706c65537761703a20544f4b454e415f544f4b454e425f4944454e544960448201526a43414c5f4144445245535360a81b60648201526084016200011b565b60006008819055600955600680546001600160a01b039384166001600160a01b031991821617909155600780549290931691161790556200041b565b6001600160a01b03163b151590565b80516001600160a01b03811681146200026d57600080fd5b919050565b600080604083850312156200028657600080fd5b620002918362000255565b9150620002a16020840162000255565b90509250929050565b634e487b7160e01b600052604160045260246000fd5b600181811c90821680620002d557607f821691505b602082108103620002f657634e487b7160e01b600052602260045260246000fd5b50919050565b601f8211156200034a57600081815260208120601f850160051c81016020861015620003255750805b601f850160051c820191505b81811015620003465782815560010162000331565b5050505b505050565b81516001600160401b038111156200036b576200036b620002aa565b62000383816200037c8454620002c0565b84620002fc565b602080601f831160018114620003bb5760008415620003a25750858301515b600019600386901b1c1916600185901b17855562000346565b600085815260208120601f198616915b82811015620003ec57888601518255948401946001909101908401620003cb565b50858210156200040b5787850151600019600388901b60f8161c191681555b5050505050600190811b01905550565b611a9c806200042b6000396000f3fe608060405234801561001057600080fd5b50600436106101115760003560e01c80635f64b55b116100ad578063a457c2d711610071578063a457c2d71461026c578063a9059cbb1461027f578063ae0ba2fb14610292578063dd62ed3e146102a3578063df791e50146102b657600080fd5b80635f64b55b146101e757806370a08231146101fa57806395d89b41146102235780639c8f9f231461022b5780639cd441da1461023e57600080fd5b806306fdde03146101165780630902f1ac14610134578063095ea7b3146101505780630f0148ea146101735780630fc63d101461018d57806318160ddd146101a057806323b872dd146101b2578063313ce567146101c557806339509351146101d4575b600080fd5b61011e6102c9565b60405161012b919061177a565b60405180910390f35b6008546009545b6040805192835260208301919091520161012b565b61016361015e3660046117c9565b61035b565b604051901515815260200161012b565b6007546001600160a01b03165b60405161012b91906117f3565b600654610180906001600160a01b031681565b6002545b60405190815260200161012b565b6101636101c0366004611807565b610375565b6040516012815260200161012b565b6101636101e23660046117c9565b61039b565b600754610180906001600160a01b031681565b6101a4610208366004611843565b6001600160a01b031660009081526020819052604090205490565b61011e6103bd565b61013b61023936600461185e565b6103cc565b61025161024c366004611877565b6105d5565b6040805193845260208401929092529082015260600161012b565b61016361027a3660046117c9565b610790565b61016361028d3660046117c9565b610816565b6006546001600160a01b0316610180565b6101a46102b1366004611899565b610824565b6101a46102c4366004611807565b61084f565b6060600380546102d8906118cc565b80601f0160208091040260200160405190810160405280929190818152602001828054610304906118cc565b80156103515780601f1061032657610100808354040283529160200191610351565b820191906000526020600020905b81548152906001019060200180831161033457829003601f168201915b5050505050905090565b600033610369818585610d06565b60019150505b92915050565b600033610383858285610e2b565b61038e858585610ea5565b60019150505b9392505050565b6000336103698185856103ae8383610824565b6103b8919061191c565b610d06565b6060600480546102d8906118cc565b600080600083116104365760405162461bcd60e51b815260206004820152602960248201527f53696d706c65537761703a20494e53554646494349454e545f4c495155494449604482015268151657d0955493915160ba1b60648201526084015b60405180910390fd5b600061044160025490565b90506104628161045c6008548761103790919063ffffffff16565b90611043565b925061047d8161045c6009548761103790919063ffffffff16565b915061048b6000848461104f565b610496333086610ea5565b60065460405163a9059cbb60e01b81526001600160a01b039091169063a9059cbb906104c8903390879060040161192f565b6020604051808303816000875af11580156104e7573d6000803e3d6000fd5b505050506040513d601f19601f8201168201806040525081019061050b9190611948565b5060075460405163a9059cbb60e01b81526001600160a01b039091169063a9059cbb9061053e903390869060040161192f565b6020604051808303816000875af115801561055d573d6000803e3d6000fd5b505050506040513d601f19601f820116820180604052508101906105819190611948565b5061058c30856110d3565b604080518481526020810184905290810185905233907f59c3a0b60c6ab7deb62e1440c9e72441db6db7dfe514dba8cb18e60c0d896efa9060600160405180910390a250915091565b600080600080851180156105e95750600084115b6106055760405162461bcd60e51b815260040161042d9061196a565b600061061060025490565b9050806000036106395761062c6106278787611037565b6111f0565b915085935084925061069d565b6008546106649061064e9061045c8985611037565b60095461065f9061045c8986611037565b6112d4565b915061067f8161045c6008548561103790919063ffffffff16565b935061069a8161045c6009548561103790919063ffffffff16565b92505b600082116106ff5760405162461bcd60e51b815260206004820152602960248201527f53696d706c65537761703a20494e53554646494349454e545f4c495155494449604482015268151657d3525395115160ba1b606482015260840161042d565b61070b6001858561104f565b600654610723906001600160a01b03163330876112ea565b60075461073b906001600160a01b03163330866112ea565b6107453383611344565b604080518581526020810185905290810183905233907fbeb3885786d637a474cbc287c0a44587231633a077f0bd30354d5a4b18996fce9060600160405180910390a2509250925092565b6000338161079e8286610824565b9050838110156107fe5760405162461bcd60e51b815260206004820152602560248201527f45524332303a2064656372656173656420616c6c6f77616e63652062656c6f77604482015264207a65726f60d81b606482015260840161042d565b61080b8286868403610d06565b506001949350505050565b600033610369818585610ea5565b6001600160a01b03918216600090815260016020908152604080832093909416825291909152205490565b60006108596113f1565b6006546001600160a01b038581169116148061088257506007546001600160a01b038581169116145b6108ce5760405162461bcd60e51b815260206004820152601c60248201527f53696d706c65537761703a20494e56414c49445f544f4b454e5f494e00000000604482015260640161042d565b6006546001600160a01b03848116911614806108f757506007546001600160a01b038481169116145b6109435760405162461bcd60e51b815260206004820152601d60248201527f53696d706c65537761703a20494e56414c49445f544f4b454e5f4f5554000000604482015260640161042d565b826001600160a01b0316846001600160a01b0316036109a45760405162461bcd60e51b815260206004820152601d60248201527f53696d706c65537761703a204944454e544943414c5f41444452455353000000604482015260640161042d565b600082116109c45760405162461bcd60e51b815260040161042d9061196a565b6040516370a0823160e01b81526000906001600160a01b038616906370a08231906109f39030906004016117f3565b602060405180830381865afa158015610a10573d6000803e3d6000fd5b505050506040513d601f19601f82011682018060405250810190610a3491906119af565b90506000846001600160a01b03166370a08231306040518263ffffffff1660e01b8152600401610a6491906117f3565b602060405180830381865afa158015610a81573d6000803e3d6000fd5b505050506040513d601f19601f82011682018060405250810190610aa591906119af565b90506000610ab3838661144a565b9050610ad88161045c600a54610ad2868661103790919063ffffffff16565b90611456565b935060008411610b395760405162461bcd60e51b815260206004820152602660248201527f53696d706c65537761703a20494e53554646494349454e545f4f55545055545f604482015265105353d5539560d21b606482015260840161042d565b610b45873330886112ea565b60405163a9059cbb60e01b81526001600160a01b0387169063a9059cbb90610b73903390889060040161192f565b6020604051808303816000875af1158015610b92573d6000803e3d6000fd5b505050506040513d601f19601f82011682018060405250810190610bb69190611948565b506006546040516370a0823160e01b81526001600160a01b03909116906370a0823190610be79030906004016117f3565b602060405180830381865afa158015610c04573d6000803e3d6000fd5b505050506040513d601f19601f82011682018060405250810190610c2891906119af565b6008556007546040516370a0823160e01b81526001600160a01b03909116906370a0823190610c5b9030906004016117f3565b602060405180830381865afa158015610c78573d6000803e3d6000fd5b505050506040513d601f19601f82011682018060405250810190610c9c91906119af565b60095560408051868152602081018690526001600160a01b0380891692908a169133917fcd3829a3813dc3cdd188fd3d01dcf3268c16be2fdd2dd21d0665418816e46062910160405180910390a45050506103946001600555565b6001600160a01b03163b151590565b6001600160a01b038316610d685760405162461bcd60e51b8152602060048201526024808201527f45524332303a20617070726f76652066726f6d20746865207a65726f206164646044820152637265737360e01b606482015260840161042d565b6001600160a01b038216610dc95760405162461bcd60e51b815260206004820152602260248201527f45524332303a20617070726f766520746f20746865207a65726f206164647265604482015261737360f01b606482015260840161042d565b6001600160a01b0383811660008181526001602090815260408083209487168084529482529182902085905590518481527f8c5be1e5ebec7d5bd14f71427d1e84f3dd0314c0f7b2291e5b200ac8c7c3b92591015b60405180910390a3505050565b6000610e378484610824565b90506000198114610e9f5781811015610e925760405162461bcd60e51b815260206004820152601d60248201527f45524332303a20696e73756666696369656e7420616c6c6f77616e6365000000604482015260640161042d565b610e9f8484848403610d06565b50505050565b6001600160a01b038316610f095760405162461bcd60e51b815260206004820152602560248201527f45524332303a207472616e736665722066726f6d20746865207a65726f206164604482015264647265737360d81b606482015260840161042d565b6001600160a01b038216610f6b5760405162461bcd60e51b815260206004820152602360248201527f45524332303a207472616e7366657220746f20746865207a65726f206164647260448201526265737360e81b606482015260840161042d565b6001600160a01b03831660009081526020819052604090205481811015610fe35760405162461bcd60e51b815260206004820152602660248201527f45524332303a207472616e7366657220616d6f756e7420657863656564732062604482015265616c616e636560d01b606482015260840161042d565b6001600160a01b0384811660008181526020818152604080832087870390559387168083529184902080548701905592518581529092600080516020611a47833981519152910160405180910390a3610e9f565b600061039482846119c8565b600061039482846119f5565b821561108b578160086000828254611067919061191c565b925050819055508060096000828254611080919061191c565b909155506110bc9050565b816008600082825461109d9190611a17565b9250508190555080600960008282546110b69190611a17565b90915550505b6009546008546110cb91611037565b600a55505050565b6001600160a01b0382166111335760405162461bcd60e51b815260206004820152602160248201527f45524332303a206275726e2066726f6d20746865207a65726f206164647265736044820152607360f81b606482015260840161042d565b6001600160a01b038216600090815260208190526040902054818110156111a75760405162461bcd60e51b815260206004820152602260248201527f45524332303a206275726e20616d6f756e7420657863656564732062616c616e604482015261636560f01b606482015260840161042d565b6001600160a01b038316600081815260208181526040808320868603905560028054879003905551858152919291600080516020611a478339815191529101610e1e565b505050565b60008160000361120257506000919050565b6000600161120f84611462565b901c6001901b90506001818481611228576112286119df565b048201901c90506001818481611240576112406119df565b048201901c90506001818481611258576112586119df565b048201901c90506001818481611270576112706119df565b048201901c90506001818481611288576112886119df565b048201901c905060018184816112a0576112a06119df565b048201901c905060018184816112b8576112b86119df565b048201901c9050610394818285816112d2576112d26119df565b045b60008183106112e35781610394565b5090919050565b604080516001600160a01b0385811660248301528416604482015260648082018490528251808303909101815260849091019091526020810180516001600160e01b03166323b872dd60e01b179052610e9f9085906114f6565b6001600160a01b03821661139a5760405162461bcd60e51b815260206004820152601f60248201527f45524332303a206d696e7420746f20746865207a65726f206164647265737300604482015260640161042d565b80600260008282546113ac919061191c565b90915550506001600160a01b03821660008181526020818152604080832080548601905551848152600080516020611a47833981519152910160405180910390a35050565b6002600554036114435760405162461bcd60e51b815260206004820152601f60248201527f5265656e7472616e637947756172643a207265656e7472616e742063616c6c00604482015260640161042d565b6002600555565b6000610394828461191c565b60006103948284611a17565b600080608083901c1561147757608092831c92015b604083901c1561148957604092831c92015b602083901c1561149b57602092831c92015b601083901c156114ad57601092831c92015b600883901c156114bf57600892831c92015b600483901c156114d157600492831c92015b600283901c156114e357600292831c92015b600183901c1561036f5760010192915050565b600061154b826040518060400160405280602081526020017f5361666545524332303a206c6f772d6c6576656c2063616c6c206661696c6564815250856001600160a01b03166115c89092919063ffffffff16565b8051909150156111eb57808060200190518101906115699190611948565b6111eb5760405162461bcd60e51b815260206004820152602a60248201527f5361666545524332303a204552433230206f7065726174696f6e20646964206e6044820152691bdd081cdd58d8d9595960b21b606482015260840161042d565b60606115d784846000856115df565b949350505050565b6060824710156116405760405162461bcd60e51b815260206004820152602660248201527f416464726573733a20696e73756666696369656e742062616c616e636520666f6044820152651c8818d85b1b60d21b606482015260840161042d565b600080866001600160a01b0316858760405161165c9190611a2a565b60006040518083038185875af1925050503d8060008114611699576040519150601f19603f3d011682016040523d82523d6000602084013e61169e565b606091505b50915091506116af878383876116ba565b979650505050505050565b60608315611727578251600003611720576116d485610cf7565b6117205760405162461bcd60e51b815260206004820152601d60248201527f416464726573733a2063616c6c20746f206e6f6e2d636f6e7472616374000000604482015260640161042d565b50816115d7565b6115d7838381511561173c5781518083602001fd5b8060405162461bcd60e51b815260040161042d919061177a565b60005b83811015611771578181015183820152602001611759565b50506000910152565b6020815260008251806020840152611799816040850160208701611756565b601f01601f19169190910160400192915050565b80356001600160a01b03811681146117c457600080fd5b919050565b600080604083850312156117dc57600080fd5b6117e5836117ad565b946020939093013593505050565b6001600160a01b0391909116815260200190565b60008060006060848603121561181c57600080fd5b611825846117ad565b9250611833602085016117ad565b9150604084013590509250925092565b60006020828403121561185557600080fd5b610394826117ad565b60006020828403121561187057600080fd5b5035919050565b6000806040838503121561188a57600080fd5b50508035926020909101359150565b600080604083850312156118ac57600080fd5b6118b5836117ad565b91506118c3602084016117ad565b90509250929050565b600181811c908216806118e057607f821691505b60208210810361190057634e487b7160e01b600052602260045260246000fd5b50919050565b634e487b7160e01b600052601160045260246000fd5b8082018082111561036f5761036f611906565b6001600160a01b03929092168252602082015260400190565b60006020828403121561195a57600080fd5b8151801515811461039457600080fd5b60208082526025908201527f53696d706c65537761703a20494e53554646494349454e545f494e5055545f416040820152641353d5539560da1b606082015260800190565b6000602082840312156119c157600080fd5b5051919050565b808202811582820484141761036f5761036f611906565b634e487b7160e01b600052601260045260246000fd5b600082611a1257634e487b7160e01b600052601260045260246000fd5b500490565b8181038181111561036f5761036f611906565b60008251611a3c818460208701611756565b919091019291505056feddf252ad1be2c89b69c2b068fc378daa952ba7f163c4a11628f55a4df523b3efa26469706673582212204aa0cba51d023067e2c0a5d15b51f320f03836e7493d9b9dfb33ac7f8bd72af864736f6c63430008110033","opcodes":"PUSH1 0x80 PUSH1 0x40 MSTORE CALLVALUE DUP1 ISZERO PUSH3 0x11 JUMPI PUSH1 0x0 DUP1 REVERT JUMPDEST POP PUSH1 0x40 MLOAD PUSH3 0x1EC7 CODESIZE SUB DUP1 PUSH3 0x1EC7 DUP4 CODECOPY DUP2 ADD PUSH1 0x40 DUP2 SWAP1 MSTORE PUSH3 0x34 SWAP2 PUSH3 0x272 JUMP JUMPDEST PUSH1 0x40 MLOAD DUP1 PUSH1 0x40 ADD PUSH1 0x40 MSTORE DUP1 PUSH1 0x13 DUP2 MSTORE PUSH1 0x20 ADD PUSH32 0x53696D706C6553776170204C5020546F6B656E00000000000000000000000000 DUP2 MSTORE POP PUSH1 0x40 MLOAD DUP1 PUSH1 0x40 ADD PUSH1 0x40 MSTORE DUP1 PUSH1 0x3 DUP2 MSTORE PUSH1 0x20 ADD PUSH3 0x534C5 PUSH1 0xEC SHL DUP2 MSTORE POP DUP2 PUSH1 0x3 SWAP1 DUP2 PUSH3 0x97 SWAP2 SWAP1 PUSH3 0x34F JUMP JUMPDEST POP PUSH1 0x4 PUSH3 0xA6 DUP3 DUP3 PUSH3 0x34F JUMP JUMPDEST POP POP POP PUSH1 0x1 PUSH1 0x5 DUP2 SWAP1 SSTORE POP PUSH3 0xC7 DUP3 PUSH3 0x246 PUSH1 0x20 SHL PUSH3 0xCF7 OR PUSH1 0x20 SHR JUMP JUMPDEST PUSH3 0x124 JUMPI PUSH1 0x40 MLOAD PUSH3 0x461BCD PUSH1 0xE5 SHL DUP2 MSTORE PUSH1 0x20 PUSH1 0x4 DUP3 ADD MSTORE PUSH1 0x22 PUSH1 0x24 DUP3 ADD MSTORE PUSH32 0x53696D706C65537761703A20544F4B454E415F49535F4E4F545F434F4E545241 PUSH1 0x44 DUP3 ADD MSTORE PUSH2 0x10D5 PUSH1 0xF2 SHL PUSH1 0x64 DUP3 ADD MSTORE PUSH1 0x84 ADD JUMPDEST PUSH1 0x40 MLOAD DUP1 SWAP2 SUB SWAP1 REVERT JUMPDEST PUSH3 0x13A DUP2 PUSH3 0x246 PUSH1 0x20 SHL PUSH3 0xCF7 OR PUSH1 0x20 SHR JUMP JUMPDEST PUSH3 0x193 JUMPI PUSH1 0x40 MLOAD PUSH3 0x461BCD PUSH1 0xE5 SHL DUP2 MSTORE PUSH1 0x20 PUSH1 0x4 DUP3 ADD MSTORE PUSH1 0x22 PUSH1 0x24 DUP3 ADD MSTORE PUSH32 0x53696D706C65537761703A20544F4B454E425F49535F4E4F545F434F4E545241 PUSH1 0x44 DUP3 ADD MSTORE PUSH2 0x10D5 PUSH1 0xF2 SHL PUSH1 0x64 DUP3 ADD MSTORE PUSH1 0x84 ADD PUSH3 0x11B JUMP JUMPDEST DUP1 PUSH1 0x1 PUSH1 0x1 PUSH1 0xA0 SHL SUB AND DUP3 PUSH1 0x1 PUSH1 0x1 PUSH1 0xA0 SHL SUB AND SUB PUSH3 0x20A JUMPI PUSH1 0x40 MLOAD PUSH3 0x461BCD PUSH1 0xE5 SHL DUP2 MSTORE PUSH1 0x20 PUSH1 0x4 DUP3 ADD MSTORE PUSH1 0x2B PUSH1 0x24 DUP3 ADD MSTORE PUSH32 0x53696D706C65537761703A20544F4B454E415F544F4B454E425F4944454E5449 PUSH1 0x44 DUP3 ADD MSTORE PUSH11 0x43414C5F41444452455353 PUSH1 0xA8 SHL PUSH1 0x64 DUP3 ADD MSTORE PUSH1 0x84 ADD PUSH3 0x11B JUMP JUMPDEST PUSH1 0x0 PUSH1 0x8 DUP2 SWAP1 SSTORE PUSH1 0x9 SSTORE PUSH1 0x6 DUP1 SLOAD PUSH1 0x1 PUSH1 0x1 PUSH1 0xA0 SHL SUB SWAP4 DUP5 AND PUSH1 0x1 PUSH1 0x1 PUSH1 0xA0 SHL SUB NOT SWAP2 DUP3 AND OR SWAP1 SWAP2 SSTORE PUSH1 0x7 DUP1 SLOAD SWAP3 SWAP1 SWAP4 AND SWAP2 AND OR SWAP1 SSTORE PUSH3 0x41B JUMP JUMPDEST PUSH1 0x1 PUSH1 0x1 PUSH1 0xA0 SHL SUB AND EXTCODESIZE ISZERO ISZERO SWAP1 JUMP JUMPDEST DUP1 MLOAD PUSH1 0x1 PUSH1 0x1 PUSH1 0xA0 SHL SUB DUP2 AND DUP2 EQ PUSH3 0x26D JUMPI PUSH1 0x0 DUP1 REVERT JUMPDEST SWAP2 SWAP1 POP JUMP JUMPDEST PUSH1 0x0 DUP1 PUSH1 0x40 DUP4 DUP6 SUB SLT ISZERO PUSH3 0x286 JUMPI PUSH1 0x0 DUP1 REVERT JUMPDEST PUSH3 0x291 DUP4 PUSH3 0x255 JUMP JUMPDEST SWAP2 POP PUSH3 0x2A1 PUSH1 0x20 DUP5 ADD PUSH3 0x255 JUMP JUMPDEST SWAP1 POP SWAP3 POP SWAP3 SWAP1 POP JUMP JUMPDEST PUSH4 0x4E487B71 PUSH1 0xE0 SHL PUSH1 0x0 MSTORE PUSH1 0x41 PUSH1 0x4 MSTORE PUSH1 0x24 PUSH1 0x0 REVERT JUMPDEST PUSH1 0x1 DUP2 DUP2 SHR SWAP1 DUP3 AND DUP1 PUSH3 0x2D5 JUMPI PUSH1 0x7F DUP3 AND SWAP2 POP JUMPDEST PUSH1 0x20 DUP3 LT DUP2 SUB PUSH3 0x2F6 JUMPI PUSH4 0x4E487B71 PUSH1 0xE0 SHL PUSH1 0x0 MSTORE PUSH1 0x22 PUSH1 0x4 MSTORE PUSH1 0x24 PUSH1 0x0 REVERT JUMPDEST POP SWAP2 SWAP1 POP JUMP JUMPDEST PUSH1 0x1F DUP3 GT ISZERO PUSH3 0x34A JUMPI PUSH1 0x0 DUP2 DUP2 MSTORE PUSH1 0x20 DUP2 KECCAK256 PUSH1 0x1F DUP6 ADD PUSH1 0x5 SHR DUP2 ADD PUSH1 0x20 DUP7 LT ISZERO PUSH3 0x325 JUMPI POP DUP1 JUMPDEST PUSH1 0x1F DUP6 ADD PUSH1 0x5 SHR DUP3 ADD SWAP2 POP JUMPDEST DUP2 DUP2 LT ISZERO PUSH3 0x346 JUMPI DUP3 DUP2 SSTORE PUSH1 0x1 ADD PUSH3 0x331 JUMP JUMPDEST POP POP POP JUMPDEST POP POP POP JUMP JUMPDEST DUP2 MLOAD PUSH1 0x1 PUSH1 0x1 PUSH1 0x40 SHL SUB DUP2 GT ISZERO PUSH3 0x36B JUMPI PUSH3 0x36B PUSH3 0x2AA JUMP JUMPDEST PUSH3 0x383 DUP2 PUSH3 0x37C DUP5 SLOAD PUSH3 0x2C0 JUMP JUMPDEST DUP5 PUSH3 0x2FC JUMP JUMPDEST PUSH1 0x20 DUP1 PUSH1 0x1F DUP4 GT PUSH1 0x1 DUP2 EQ PUSH3 0x3BB JUMPI PUSH1 0x0 DUP5 ISZERO PUSH3 0x3A2 JUMPI POP DUP6 DUP4 ADD MLOAD JUMPDEST PUSH1 0x0 NOT PUSH1 0x3 DUP7 SWAP1 SHL SHR NOT AND PUSH1 0x1 DUP6 SWAP1 SHL OR DUP6 SSTORE PUSH3 0x346 JUMP JUMPDEST PUSH1 0x0 DUP6 DUP2 MSTORE PUSH1 0x20 DUP2 KECCAK256 PUSH1 0x1F NOT DUP7 AND SWAP2 JUMPDEST DUP3 DUP2 LT ISZERO PUSH3 0x3EC JUMPI DUP9 DUP7 ADD MLOAD DUP3 SSTORE SWAP5 DUP5 ADD SWAP5 PUSH1 0x1 SWAP1 SWAP2 ADD SWAP1 DUP5 ADD PUSH3 0x3CB JUMP JUMPDEST POP DUP6 DUP3 LT ISZERO PUSH3 0x40B JUMPI DUP8 DUP6 ADD MLOAD PUSH1 0x0 NOT PUSH1 0x3 DUP9 SWAP1 SHL PUSH1 0xF8 AND SHR NOT AND DUP2 SSTORE JUMPDEST POP POP POP POP POP PUSH1 0x1 SWAP1 DUP2 SHL ADD SWAP1 SSTORE POP JUMP JUMPDEST PUSH2 0x1A9C DUP1 PUSH3 0x42B PUSH1 0x0 CODECOPY PUSH1 0x0 RETURN INVALID PUSH1 0x80 PUSH1 0x40 MSTORE CALLVALUE DUP1 ISZERO PUSH2 0x10 JUMPI PUSH1 0x0 DUP1 REVERT JUMPDEST POP PUSH1 0x4 CALLDATASIZE LT PUSH2 0x111 JUMPI PUSH1 0x0 CALLDATALOAD PUSH1 0xE0 SHR DUP1 PUSH4 0x5F64B55B GT PUSH2 0xAD JUMPI DUP1 PUSH4 0xA457C2D7 GT PUSH2 0x71 JUMPI DUP1 PUSH4 0xA457C2D7 EQ PUSH2 0x26C JUMPI DUP1 PUSH4 0xA9059CBB EQ PUSH2 0x27F JUMPI DUP1 PUSH4 0xAE0BA2FB EQ PUSH2 0x292 JUMPI DUP1 PUSH4 0xDD62ED3E EQ PUSH2 0x2A3 JUMPI DUP1 PUSH4 0xDF791E50 EQ PUSH2 0x2B6 JUMPI PUSH1 0x0 DUP1 REVERT JUMPDEST DUP1 PUSH4 0x5F64B55B EQ PUSH2 0x1E7 JUMPI DUP1 PUSH4 0x70A08231 EQ PUSH2 0x1FA JUMPI DUP1 PUSH4 0x95D89B41 EQ PUSH2 0x223 JUMPI DUP1 PUSH4 0x9C8F9F23 EQ PUSH2 0x22B JUMPI DUP1 PUSH4 0x9CD441DA EQ PUSH2 0x23E JUMPI PUSH1 0x0 DUP1 REVERT JUMPDEST DUP1 PUSH4 0x6FDDE03 EQ PUSH2 0x116 JUMPI DUP1 PUSH4 0x902F1AC EQ PUSH2 0x134 JUMPI DUP1 PUSH4 0x95EA7B3 EQ PUSH2 0x150 JUMPI DUP1 PUSH4 0xF0148EA EQ PUSH2 0x173 JUMPI DUP1 PUSH4 0xFC63D10 EQ PUSH2 0x18D JUMPI DUP1 PUSH4 0x18160DDD EQ PUSH2 0x1A0 JUMPI DUP1 PUSH4 0x23B872DD EQ PUSH2 0x1B2 JUMPI DUP1 PUSH4 0x313CE567 EQ PUSH2 0x1C5 JUMPI DUP1 PUSH4 0x39509351 EQ PUSH2 0x1D4 JUMPI JUMPDEST PUSH1 0x0 DUP1 REVERT JUMPDEST PUSH2 0x11E PUSH2 0x2C9 JUMP JUMPDEST PUSH1 0x40 MLOAD PUSH2 0x12B SWAP2 SWAP1 PUSH2 0x177A JUMP JUMPDEST PUSH1 0x40 MLOAD DUP1 SWAP2 SUB SWAP1 RETURN JUMPDEST PUSH1 0x8 SLOAD PUSH1 0x9 SLOAD JUMPDEST PUSH1 0x40 DUP1 MLOAD SWAP3 DUP4 MSTORE PUSH1 0x20 DUP4 ADD SWAP2 SWAP1 SWAP2 MSTORE ADD PUSH2 0x12B JUMP JUMPDEST PUSH2 0x163 PUSH2 0x15E CALLDATASIZE PUSH1 0x4 PUSH2 0x17C9 JUMP JUMPDEST PUSH2 0x35B JUMP JUMPDEST PUSH1 0x40 MLOAD SWAP1 ISZERO ISZERO DUP2 MSTORE PUSH1 0x20 ADD PUSH2 0x12B JUMP JUMPDEST PUSH1 0x7 SLOAD PUSH1 0x1 PUSH1 0x1 PUSH1 0xA0 SHL SUB AND JUMPDEST PUSH1 0x40 MLOAD PUSH2 0x12B SWAP2 SWAP1 PUSH2 0x17F3 JUMP JUMPDEST PUSH1 0x6 SLOAD PUSH2 0x180 SWAP1 PUSH1 0x1 PUSH1 0x1 PUSH1 0xA0 SHL SUB AND DUP2 JUMP JUMPDEST PUSH1 0x2 SLOAD JUMPDEST PUSH1 0x40 MLOAD SWAP1 DUP2 MSTORE PUSH1 0x20 ADD PUSH2 0x12B JUMP JUMPDEST PUSH2 0x163 PUSH2 0x1C0 CALLDATASIZE PUSH1 0x4 PUSH2 0x1807 JUMP JUMPDEST PUSH2 0x375 JUMP JUMPDEST PUSH1 0x40 MLOAD PUSH1 0x12 DUP2 MSTORE PUSH1 0x20 ADD PUSH2 0x12B JUMP JUMPDEST PUSH2 0x163 PUSH2 0x1E2 CALLDATASIZE PUSH1 0x4 PUSH2 0x17C9 JUMP JUMPDEST PUSH2 0x39B JUMP JUMPDEST PUSH1 0x7 SLOAD PUSH2 0x180 SWAP1 PUSH1 0x1 PUSH1 0x1 PUSH1 0xA0 SHL SUB AND DUP2 JUMP JUMPDEST PUSH2 0x1A4 PUSH2 0x208 CALLDATASIZE PUSH1 0x4 PUSH2 0x1843 JUMP JUMPDEST PUSH1 0x1 PUSH1 0x1 PUSH1 0xA0 SHL SUB AND PUSH1 0x0 SWAP1 DUP2 MSTORE PUSH1 0x20 DUP2 SWAP1 MSTORE PUSH1 0x40 SWAP1 KECCAK256 SLOAD SWAP1 JUMP JUMPDEST PUSH2 0x11E PUSH2 0x3BD JUMP JUMPDEST PUSH2 0x13B PUSH2 0x239 CALLDATASIZE PUSH1 0x4 PUSH2 0x185E JUMP JUMPDEST PUSH2 0x3CC JUMP JUMPDEST PUSH2 0x251 PUSH2 0x24C CALLDATASIZE PUSH1 0x4 PUSH2 0x1877 JUMP JUMPDEST PUSH2 0x5D5 JUMP JUMPDEST PUSH1 0x40 DUP1 MLOAD SWAP4 DUP5 MSTORE PUSH1 0x20 DUP5 ADD SWAP3 SWAP1 SWAP3 MSTORE SWAP1 DUP3 ADD MSTORE PUSH1 0x60 ADD PUSH2 0x12B JUMP JUMPDEST PUSH2 0x163 PUSH2 0x27A CALLDATASIZE PUSH1 0x4 PUSH2 0x17C9 JUMP JUMPDEST PUSH2 0x790 JUMP JUMPDEST PUSH2 0x163 PUSH2 0x28D CALLDATASIZE PUSH1 0x4 PUSH2 0x17C9 JUMP JUMPDEST PUSH2 0x816 JUMP JUMPDEST PUSH1 0x6 SLOAD PUSH1 0x1 PUSH1 0x1 PUSH1 0xA0 SHL SUB AND PUSH2 0x180 JUMP JUMPDEST PUSH2 0x1A4 PUSH2 0x2B1 CALLDATASIZE PUSH1 0x4 PUSH2 0x1899 JUMP JUMPDEST PUSH2 0x824 JUMP JUMPDEST PUSH2 0x1A4 PUSH2 0x2C4 CALLDATASIZE PUSH1 0x4 PUSH2 0x1807 JUMP JUMPDEST PUSH2 0x84F JUMP JUMPDEST PUSH1 0x60 PUSH1 0x3 DUP1 SLOAD PUSH2 0x2D8 SWAP1 PUSH2 0x18CC JUMP JUMPDEST DUP1 PUSH1 0x1F ADD PUSH1 0x20 DUP1 SWAP2 DIV MUL PUSH1 0x20 ADD PUSH1 0x40 MLOAD SWAP1 DUP2 ADD PUSH1 0x40 MSTORE DUP1 SWAP3 SWAP2 SWAP1 DUP2 DUP2 MSTORE PUSH1 0x20 ADD DUP3 DUP1 SLOAD PUSH2 0x304 SWAP1 PUSH2 0x18CC JUMP JUMPDEST DUP1 ISZERO PUSH2 0x351 JUMPI DUP1 PUSH1 0x1F LT PUSH2 0x326 JUMPI PUSH2 0x100 DUP1 DUP4 SLOAD DIV MUL DUP4 MSTORE SWAP2 PUSH1 0x20 ADD SWAP2 PUSH2 0x351 JUMP JUMPDEST DUP3 ADD SWAP2 SWAP1 PUSH1 0x0 MSTORE PUSH1 0x20 PUSH1 0x0 KECCAK256 SWAP1 JUMPDEST DUP2 SLOAD DUP2 MSTORE SWAP1 PUSH1 0x1 ADD SWAP1 PUSH1 0x20 ADD DUP1 DUP4 GT PUSH2 0x334 JUMPI DUP3 SWAP1 SUB PUSH1 0x1F AND DUP3 ADD SWAP2 JUMPDEST POP POP POP POP POP SWAP1 POP SWAP1 JUMP JUMPDEST PUSH1 0x0 CALLER PUSH2 0x369 DUP2 DUP6 DUP6 PUSH2 0xD06 JUMP JUMPDEST PUSH1 0x1 SWAP2 POP POP JUMPDEST SWAP3 SWAP2 POP POP JUMP JUMPDEST PUSH1 0x0 CALLER PUSH2 0x383 DUP6 DUP3 DUP6 PUSH2 0xE2B JUMP JUMPDEST PUSH2 0x38E DUP6 DUP6 DUP6 PUSH2 0xEA5 JUMP JUMPDEST PUSH1 0x1 SWAP2 POP POP JUMPDEST SWAP4 SWAP3 POP POP POP JUMP JUMPDEST PUSH1 0x0 CALLER PUSH2 0x369 DUP2 DUP6 DUP6 PUSH2 0x3AE DUP4 DUP4 PUSH2 0x824 JUMP JUMPDEST PUSH2 0x3B8 SWAP2 SWAP1 PUSH2 0x191C JUMP JUMPDEST PUSH2 0xD06 JUMP JUMPDEST PUSH1 0x60 PUSH1 0x4 DUP1 SLOAD PUSH2 0x2D8 SWAP1 PUSH2 0x18CC JUMP JUMPDEST PUSH1 0x0 DUP1 PUSH1 0x0 DUP4 GT PUSH2 0x436 JUMPI PUSH1 0x40 MLOAD PUSH3 0x461BCD PUSH1 0xE5 SHL DUP2 MSTORE PUSH1 0x20 PUSH1 0x4 DUP3 ADD MSTORE PUSH1 0x29 PUSH1 0x24 DUP3 ADD MSTORE PUSH32 0x53696D706C65537761703A20494E53554646494349454E545F4C495155494449 PUSH1 0x44 DUP3 ADD MSTORE PUSH9 0x151657D09554939151 PUSH1 0xBA SHL PUSH1 0x64 DUP3 ADD MSTORE PUSH1 0x84 ADD JUMPDEST PUSH1 0x40 MLOAD DUP1 SWAP2 SUB SWAP1 REVERT JUMPDEST PUSH1 0x0 PUSH2 0x441 PUSH1 0x2 SLOAD SWAP1 JUMP JUMPDEST SWAP1 POP PUSH2 0x462 DUP2 PUSH2 0x45C PUSH1 0x8 SLOAD DUP8 PUSH2 0x1037 SWAP1 SWAP2 SWAP1 PUSH4 0xFFFFFFFF AND JUMP JUMPDEST SWAP1 PUSH2 0x1043 JUMP JUMPDEST SWAP3 POP PUSH2 0x47D DUP2 PUSH2 0x45C PUSH1 0x9 SLOAD DUP8 PUSH2 0x1037 SWAP1 SWAP2 SWAP1 PUSH4 0xFFFFFFFF AND JUMP JUMPDEST SWAP2 POP PUSH2 0x48B PUSH1 0x0 DUP5 DUP5 PUSH2 0x104F JUMP JUMPDEST PUSH2 0x496 CALLER ADDRESS DUP7 PUSH2 0xEA5 JUMP JUMPDEST PUSH1 0x6 SLOAD PUSH1 0x40 MLOAD PUSH4 0xA9059CBB PUSH1 0xE0 SHL DUP2 MSTORE PUSH1 0x1 PUSH1 0x1 PUSH1 0xA0 SHL SUB SWAP1 SWAP2 AND SWAP1 PUSH4 0xA9059CBB SWAP1 PUSH2 0x4C8 SWAP1 CALLER SWAP1 DUP8 SWAP1 PUSH1 0x4 ADD PUSH2 0x192F JUMP JUMPDEST PUSH1 0x20 PUSH1 0x40 MLOAD DUP1 DUP4 SUB DUP2 PUSH1 0x0 DUP8 GAS CALL ISZERO DUP1 ISZERO PUSH2 0x4E7 JUMPI RETURNDATASIZE PUSH1 0x0 DUP1 RETURNDATACOPY RETURNDATASIZE PUSH1 0x0 REVERT JUMPDEST POP POP POP POP PUSH1 0x40 MLOAD RETURNDATASIZE PUSH1 0x1F NOT PUSH1 0x1F DUP3 ADD AND DUP3 ADD DUP1 PUSH1 0x40 MSTORE POP DUP2 ADD SWAP1 PUSH2 0x50B SWAP2 SWAP1 PUSH2 0x1948 JUMP JUMPDEST POP PUSH1 0x7 SLOAD PUSH1 0x40 MLOAD PUSH4 0xA9059CBB PUSH1 0xE0 SHL DUP2 MSTORE PUSH1 0x1 PUSH1 0x1 PUSH1 0xA0 SHL SUB SWAP1 SWAP2 AND SWAP1 PUSH4 0xA9059CBB SWAP1 PUSH2 0x53E SWAP1 CALLER SWAP1 DUP7 SWAP1 PUSH1 0x4 ADD PUSH2 0x192F JUMP JUMPDEST PUSH1 0x20 PUSH1 0x40 MLOAD DUP1 DUP4 SUB DUP2 PUSH1 0x0 DUP8 GAS CALL ISZERO DUP1 ISZERO PUSH2 0x55D JUMPI RETURNDATASIZE PUSH1 0x0 DUP1 RETURNDATACOPY RETURNDATASIZE PUSH1 0x0 REVERT JUMPDEST POP POP POP POP PUSH1 0x40 MLOAD RETURNDATASIZE PUSH1 0x1F NOT PUSH1 0x1F DUP3 ADD AND DUP3 ADD DUP1 PUSH1 0x40 MSTORE POP DUP2 ADD SWAP1 PUSH2 0x581 SWAP2 SWAP1 PUSH2 0x1948 JUMP JUMPDEST POP PUSH2 0x58C ADDRESS DUP6 PUSH2 0x10D3 JUMP JUMPDEST PUSH1 0x40 DUP1 MLOAD DUP5 DUP2 MSTORE PUSH1 0x20 DUP2 ADD DUP5 SWAP1 MSTORE SWAP1 DUP2 ADD DUP6 SWAP1 MSTORE CALLER SWAP1 PUSH32 0x59C3A0B60C6AB7DEB62E1440C9E72441DB6DB7DFE514DBA8CB18E60C0D896EFA SWAP1 PUSH1 0x60 ADD PUSH1 0x40 MLOAD DUP1 SWAP2 SUB SWAP1 LOG2 POP SWAP2 POP SWAP2 JUMP JUMPDEST PUSH1 0x0 DUP1 PUSH1 0x0 DUP1 DUP6 GT DUP1 ISZERO PUSH2 0x5E9 JUMPI POP PUSH1 0x0 DUP5 GT JUMPDEST PUSH2 0x605 JUMPI PUSH1 0x40 MLOAD PUSH3 0x461BCD PUSH1 0xE5 SHL DUP2 MSTORE PUSH1 0x4 ADD PUSH2 0x42D SWAP1 PUSH2 0x196A JUMP JUMPDEST PUSH1 0x0 PUSH2 0x610 PUSH1 0x2 SLOAD SWAP1 JUMP JUMPDEST SWAP1 POP DUP1 PUSH1 0x0 SUB PUSH2 0x639 JUMPI PUSH2 0x62C PUSH2 0x627 DUP8 DUP8 PUSH2 0x1037 JUMP JUMPDEST PUSH2 0x11F0 JUMP JUMPDEST SWAP2 POP DUP6 SWAP4 POP DUP5 SWAP3 POP PUSH2 0x69D JUMP JUMPDEST PUSH1 0x8 SLOAD PUSH2 0x664 SWAP1 PUSH2 0x64E SWAP1 PUSH2 0x45C DUP10 DUP6 PUSH2 0x1037 JUMP JUMPDEST PUSH1 0x9 SLOAD PUSH2 0x65F SWAP1 PUSH2 0x45C DUP10 DUP7 PUSH2 0x1037 JUMP JUMPDEST PUSH2 0x12D4 JUMP JUMPDEST SWAP2 POP PUSH2 0x67F DUP2 PUSH2 0x45C PUSH1 0x8 SLOAD DUP6 PUSH2 0x1037 SWAP1 SWAP2 SWAP1 PUSH4 0xFFFFFFFF AND JUMP JUMPDEST SWAP4 POP PUSH2 0x69A DUP2 PUSH2 0x45C PUSH1 0x9 SLOAD DUP6 PUSH2 0x1037 SWAP1 SWAP2 SWAP1 PUSH4 0xFFFFFFFF AND JUMP JUMPDEST SWAP3 POP JUMPDEST PUSH1 0x0 DUP3 GT PUSH2 0x6FF JUMPI PUSH1 0x40 MLOAD PUSH3 0x461BCD PUSH1 0xE5 SHL DUP2 MSTORE PUSH1 0x20 PUSH1 0x4 DUP3 ADD MSTORE PUSH1 0x29 PUSH1 0x24 DUP3 ADD MSTORE PUSH32 0x53696D706C65537761703A20494E53554646494349454E545F4C495155494449 PUSH1 0x44 DUP3 ADD MSTORE PUSH9 0x151657D35253951151 PUSH1 0xBA SHL PUSH1 0x64 DUP3 ADD MSTORE PUSH1 0x84 ADD PUSH2 0x42D JUMP JUMPDEST PUSH2 0x70B PUSH1 0x1 DUP6 DUP6 PUSH2 0x104F JUMP JUMPDEST PUSH1 0x6 SLOAD PUSH2 0x723 SWAP1 PUSH1 0x1 PUSH1 0x1 PUSH1 0xA0 SHL SUB AND CALLER ADDRESS DUP8 PUSH2 0x12EA JUMP JUMPDEST PUSH1 0x7 SLOAD PUSH2 0x73B SWAP1 PUSH1 0x1 PUSH1 0x1 PUSH1 0xA0 SHL SUB AND CALLER ADDRESS DUP7 PUSH2 0x12EA JUMP JUMPDEST PUSH2 0x745 CALLER DUP4 PUSH2 0x1344 JUMP JUMPDEST PUSH1 0x40 DUP1 MLOAD DUP6 DUP2 MSTORE PUSH1 0x20 DUP2 ADD DUP6 SWAP1 MSTORE SWAP1 DUP2 ADD DUP4 SWAP1 MSTORE CALLER SWAP1 PUSH32 0xBEB3885786D637A474CBC287C0A44587231633A077F0BD30354D5A4B18996FCE SWAP1 PUSH1 0x60 ADD PUSH1 0x40 MLOAD DUP1 SWAP2 SUB SWAP1 LOG2 POP SWAP3 POP SWAP3 POP SWAP3 JUMP JUMPDEST PUSH1 0x0 CALLER DUP2 PUSH2 0x79E DUP3 DUP7 PUSH2 0x824 JUMP JUMPDEST SWAP1 POP DUP4 DUP2 LT ISZERO PUSH2 0x7FE JUMPI PUSH1 0x40 MLOAD PUSH3 0x461BCD PUSH1 0xE5 SHL DUP2 MSTORE PUSH1 0x20 PUSH1 0x4 DUP3 ADD MSTORE PUSH1 0x25 PUSH1 0x24 DUP3 ADD MSTORE PUSH32 0x45524332303A2064656372656173656420616C6C6F77616E63652062656C6F77 PUSH1 0x44 DUP3 ADD MSTORE PUSH5 0x207A65726F PUSH1 0xD8 SHL PUSH1 0x64 DUP3 ADD MSTORE PUSH1 0x84 ADD PUSH2 0x42D JUMP JUMPDEST PUSH2 0x80B DUP3 DUP7 DUP7 DUP5 SUB PUSH2 0xD06 JUMP JUMPDEST POP PUSH1 0x1 SWAP5 SWAP4 POP POP POP POP JUMP JUMPDEST PUSH1 0x0 CALLER PUSH2 0x369 DUP2 DUP6 DUP6 PUSH2 0xEA5 JUMP JUMPDEST PUSH1 0x1 PUSH1 0x1 PUSH1 0xA0 SHL SUB SWAP2 DUP3 AND PUSH1 0x0 SWAP1 DUP2 MSTORE PUSH1 0x1 PUSH1 0x20 SWAP1 DUP2 MSTORE PUSH1 0x40 DUP1 DUP4 KECCAK256 SWAP4 SWAP1 SWAP5 AND DUP3 MSTORE SWAP2 SWAP1 SWAP2 MSTORE KECCAK256 SLOAD SWAP1 JUMP JUMPDEST PUSH1 0x0 PUSH2 0x859 PUSH2 0x13F1 JUMP JUMPDEST PUSH1 0x6 SLOAD PUSH1 0x1 PUSH1 0x1 PUSH1 0xA0 SHL SUB DUP6 DUP2 AND SWAP2 AND EQ DUP1 PUSH2 0x882 JUMPI POP PUSH1 0x7 SLOAD PUSH1 0x1 PUSH1 0x1 PUSH1 0xA0 SHL SUB DUP6 DUP2 AND SWAP2 AND EQ JUMPDEST PUSH2 0x8CE JUMPI PUSH1 0x40 MLOAD PUSH3 0x461BCD PUSH1 0xE5 SHL DUP2 MSTORE PUSH1 0x20 PUSH1 0x4 DUP3 ADD MSTORE PUSH1 0x1C PUSH1 0x24 DUP3 ADD MSTORE PUSH32 0x53696D706C65537761703A20494E56414C49445F544F4B454E5F494E00000000 PUSH1 0x44 DUP3 ADD MSTORE PUSH1 0x64 ADD PUSH2 0x42D JUMP JUMPDEST PUSH1 0x6 SLOAD PUSH1 0x1 PUSH1 0x1 PUSH1 0xA0 SHL SUB DUP5 DUP2 AND SWAP2 AND EQ DUP1 PUSH2 0x8F7 JUMPI POP PUSH1 0x7 SLOAD PUSH1 0x1 PUSH1 0x1 PUSH1 0xA0 SHL SUB DUP5 DUP2 AND SWAP2 AND EQ JUMPDEST PUSH2 0x943 JUMPI PUSH1 0x40 MLOAD PUSH3 0x461BCD PUSH1 0xE5 SHL DUP2 MSTORE PUSH1 0x20 PUSH1 0x4 DUP3 ADD MSTORE PUSH1 0x1D PUSH1 0x24 DUP3 ADD MSTORE PUSH32 0x53696D706C65537761703A20494E56414C49445F544F4B454E5F4F5554000000 PUSH1 0x44 DUP3 ADD MSTORE PUSH1 0x64 ADD PUSH2 0x42D JUMP JUMPDEST DUP3 PUSH1 0x1 PUSH1 0x1 PUSH1 0xA0 SHL SUB AND DUP5 PUSH1 0x1 PUSH1 0x1 PUSH1 0xA0 SHL SUB AND SUB PUSH2 0x9A4 JUMPI PUSH1 0x40 MLOAD PUSH3 0x461BCD PUSH1 0xE5 SHL DUP2 MSTORE PUSH1 0x20 PUSH1 0x4 DUP3 ADD MSTORE PUSH1 0x1D PUSH1 0x24 DUP3 ADD MSTORE PUSH32 0x53696D706C65537761703A204944454E544943414C5F41444452455353000000 PUSH1 0x44 DUP3 ADD MSTORE PUSH1 0x64 ADD PUSH2 0x42D JUMP JUMPDEST PUSH1 0x0 DUP3 GT PUSH2 0x9C4 JUMPI PUSH1 0x40 MLOAD PUSH3 0x461BCD PUSH1 0xE5 SHL DUP2 MSTORE PUSH1 0x4 ADD PUSH2 0x42D SWAP1 PUSH2 0x196A JUMP JUMPDEST PUSH1 0x40 MLOAD PUSH4 0x70A08231 PUSH1 0xE0 SHL DUP2 MSTORE PUSH1 0x0 SWAP1 PUSH1 0x1 PUSH1 0x1 PUSH1 0xA0 SHL SUB DUP7 AND SWAP1 PUSH4 0x70A08231 SWAP1 PUSH2 0x9F3 SWAP1 ADDRESS SWAP1 PUSH1 0x4 ADD PUSH2 0x17F3 JUMP JUMPDEST PUSH1 0x20 PUSH1 0x40 MLOAD DUP1 DUP4 SUB DUP2 DUP7 GAS STATICCALL ISZERO DUP1 ISZERO PUSH2 0xA10 JUMPI RETURNDATASIZE PUSH1 0x0 DUP1 RETURNDATACOPY RETURNDATASIZE PUSH1 0x0 REVERT JUMPDEST POP POP POP POP PUSH1 0x40 MLOAD RETURNDATASIZE PUSH1 0x1F NOT PUSH1 0x1F DUP3 ADD AND DUP3 ADD DUP1 PUSH1 0x40 MSTORE POP DUP2 ADD SWAP1 PUSH2 0xA34 SWAP2 SWAP1 PUSH2 0x19AF JUMP JUMPDEST SWAP1 POP PUSH1 0x0 DUP5 PUSH1 0x1 PUSH1 0x1 PUSH1 0xA0 SHL SUB AND PUSH4 0x70A08231 ADDRESS PUSH1 0x40 MLOAD DUP3 PUSH4 0xFFFFFFFF AND PUSH1 0xE0 SHL DUP2 MSTORE PUSH1 0x4 ADD PUSH2 0xA64 SWAP2 SWAP1 PUSH2 0x17F3 JUMP JUMPDEST PUSH1 0x20 PUSH1 0x40 MLOAD DUP1 DUP4 SUB DUP2 DUP7 GAS STATICCALL ISZERO DUP1 ISZERO PUSH2 0xA81 JUMPI RETURNDATASIZE PUSH1 0x0 DUP1 RETURNDATACOPY RETURNDATASIZE PUSH1 0x0 REVERT JUMPDEST POP POP POP POP PUSH1 0x40 MLOAD RETURNDATASIZE PUSH1 0x1F NOT PUSH1 0x1F DUP3 ADD AND DUP3 ADD DUP1 PUSH1 0x40 MSTORE POP DUP2 ADD SWAP1 PUSH2 0xAA5 SWAP2 SWAP1 PUSH2 0x19AF JUMP JUMPDEST SWAP1 POP PUSH1 0x0 PUSH2 0xAB3 DUP4 DUP7 PUSH2 0x144A JUMP JUMPDEST SWAP1 POP PUSH2 0xAD8 DUP2 PUSH2 0x45C PUSH1 0xA SLOAD PUSH2 0xAD2 DUP7 DUP7 PUSH2 0x1037 SWAP1 SWAP2 SWAP1 PUSH4 0xFFFFFFFF AND JUMP JUMPDEST SWAP1 PUSH2 0x1456 JUMP JUMPDEST SWAP4 POP PUSH1 0x0 DUP5 GT PUSH2 0xB39 JUMPI PUSH1 0x40 MLOAD PUSH3 0x461BCD PUSH1 0xE5 SHL DUP2 MSTORE PUSH1 0x20 PUSH1 0x4 DUP3 ADD MSTORE PUSH1 0x26 PUSH1 0x24 DUP3 ADD MSTORE PUSH32 0x53696D706C65537761703A20494E53554646494349454E545F4F55545055545F PUSH1 0x44 DUP3 ADD MSTORE PUSH6 0x105353D55395 PUSH1 0xD2 SHL PUSH1 0x64 DUP3 ADD MSTORE PUSH1 0x84 ADD PUSH2 0x42D JUMP JUMPDEST PUSH2 0xB45 DUP8 CALLER ADDRESS DUP9 PUSH2 0x12EA JUMP JUMPDEST PUSH1 0x40 MLOAD PUSH4 0xA9059CBB PUSH1 0xE0 SHL DUP2 MSTORE PUSH1 0x1 PUSH1 0x1 PUSH1 0xA0 SHL SUB DUP8 AND SWAP1 PUSH4 0xA9059CBB SWAP1 PUSH2 0xB73 SWAP1 CALLER SWAP1 DUP9 SWAP1 PUSH1 0x4 ADD PUSH2 0x192F JUMP JUMPDEST PUSH1 0x20 PUSH1 0x40 MLOAD DUP1 DUP4 SUB DUP2 PUSH1 0x0 DUP8 GAS CALL ISZERO DUP1 ISZERO PUSH2 0xB92 JUMPI RETURNDATASIZE PUSH1 0x0 DUP1 RETURNDATACOPY RETURNDATASIZE PUSH1 0x0 REVERT JUMPDEST POP POP POP POP PUSH1 0x40 MLOAD RETURNDATASIZE PUSH1 0x1F NOT PUSH1 0x1F DUP3 ADD AND DUP3 ADD DUP1 PUSH1 0x40 MSTORE POP DUP2 ADD SWAP1 PUSH2 0xBB6 SWAP2 SWAP1 PUSH2 0x1948 JUMP JUMPDEST POP PUSH1 0x6 SLOAD PUSH1 0x40 MLOAD PUSH4 0x70A08231 PUSH1 0xE0 SHL DUP2 MSTORE PUSH1 0x1 PUSH1 0x1 PUSH1 0xA0 SHL SUB SWAP1 SWAP2 AND SWAP1 PUSH4 0x70A08231 SWAP1 PUSH2 0xBE7 SWAP1 ADDRESS SWAP1 PUSH1 0x4 ADD PUSH2 0x17F3 JUMP JUMPDEST PUSH1 0x20 PUSH1 0x40 MLOAD DUP1 DUP4 SUB DUP2 DUP7 GAS STATICCALL ISZERO DUP1 ISZERO PUSH2 0xC04 JUMPI RETURNDATASIZE PUSH1 0x0 DUP1 RETURNDATACOPY RETURNDATASIZE PUSH1 0x0 REVERT JUMPDEST POP POP POP POP PUSH1 0x40 MLOAD RETURNDATASIZE PUSH1 0x1F NOT PUSH1 0x1F DUP3 ADD AND DUP3 ADD DUP1 PUSH1 0x40 MSTORE POP DUP2 ADD SWAP1 PUSH2 0xC28 SWAP2 SWAP1 PUSH2 0x19AF JUMP JUMPDEST PUSH1 0x8 SSTORE PUSH1 0x7 SLOAD PUSH1 0x40 MLOAD PUSH4 0x70A08231 PUSH1 0xE0 SHL DUP2 MSTORE PUSH1 0x1 PUSH1 0x1 PUSH1 0xA0 SHL SUB SWAP1 SWAP2 AND SWAP1 PUSH4 0x70A08231 SWAP1 PUSH2 0xC5B SWAP1 ADDRESS SWAP1 PUSH1 0x4 ADD PUSH2 0x17F3 JUMP JUMPDEST PUSH1 0x20 PUSH1 0x40 MLOAD DUP1 DUP4 SUB DUP2 DUP7 GAS STATICCALL ISZERO DUP1 ISZERO PUSH2 0xC78 JUMPI RETURNDATASIZE PUSH1 0x0 DUP1 RETURNDATACOPY RETURNDATASIZE PUSH1 0x0 REVERT JUMPDEST POP POP POP POP PUSH1 0x40 MLOAD RETURNDATASIZE PUSH1 0x1F NOT PUSH1 0x1F DUP3 ADD AND DUP3 ADD DUP1 PUSH1 0x40 MSTORE POP DUP2 ADD SWAP1 PUSH2 0xC9C SWAP2 SWAP1 PUSH2 0x19AF JUMP JUMPDEST PUSH1 0x9 SSTORE PUSH1 0x40 DUP1 MLOAD DUP7 DUP2 MSTORE PUSH1 0x20 DUP2 ADD DUP7 SWAP1 MSTORE PUSH1 0x1 PUSH1 0x1 PUSH1 0xA0 SHL SUB DUP1 DUP10 AND SWAP3 SWAP1 DUP11 AND SWAP2 CALLER SWAP2 PUSH32 0xCD3829A3813DC3CDD188FD3D01DCF3268C16BE2FDD2DD21D0665418816E46062 SWAP2 ADD PUSH1 0x40 MLOAD DUP1 SWAP2 SUB SWAP1 LOG4 POP POP POP PUSH2 0x394 PUSH1 0x1 PUSH1 0x5 SSTORE JUMP JUMPDEST PUSH1 0x1 PUSH1 0x1 PUSH1 0xA0 SHL SUB AND EXTCODESIZE ISZERO ISZERO SWAP1 JUMP JUMPDEST PUSH1 0x1 PUSH1 0x1 PUSH1 0xA0 SHL SUB DUP4 AND PUSH2 0xD68 JUMPI PUSH1 0x40 MLOAD PUSH3 0x461BCD PUSH1 0xE5 SHL DUP2 MSTORE PUSH1 0x20 PUSH1 0x4 DUP3 ADD MSTORE PUSH1 0x24 DUP1 DUP3 ADD MSTORE PUSH32 0x45524332303A20617070726F76652066726F6D20746865207A65726F20616464 PUSH1 0x44 DUP3 ADD MSTORE PUSH4 0x72657373 PUSH1 0xE0 SHL PUSH1 0x64 DUP3 ADD MSTORE PUSH1 0x84 ADD PUSH2 0x42D JUMP JUMPDEST PUSH1 0x1 PUSH1 0x1 PUSH1 0xA0 SHL SUB DUP3 AND PUSH2 0xDC9 JUMPI PUSH1 0x40 MLOAD PUSH3 0x461BCD PUSH1 0xE5 SHL DUP2 MSTORE PUSH1 0x20 PUSH1 0x4 DUP3 ADD MSTORE PUSH1 0x22 PUSH1 0x24 DUP3 ADD MSTORE PUSH32 0x45524332303A20617070726F766520746F20746865207A65726F206164647265 PUSH1 0x44 DUP3 ADD MSTORE PUSH2 0x7373 PUSH1 0xF0 SHL PUSH1 0x64 DUP3 ADD MSTORE PUSH1 0x84 ADD PUSH2 0x42D JUMP JUMPDEST PUSH1 0x1 PUSH1 0x1 PUSH1 0xA0 SHL SUB DUP4 DUP2 AND PUSH1 0x0 DUP2 DUP2 MSTORE PUSH1 0x1 PUSH1 0x20 SWAP1 DUP2 MSTORE PUSH1 0x40 DUP1 DUP4 KECCAK256 SWAP5 DUP8 AND DUP1 DUP5 MSTORE SWAP5 DUP3 MSTORE SWAP2 DUP3 SWAP1 KECCAK256 DUP6 SWAP1 SSTORE SWAP1 MLOAD DUP5 DUP2 MSTORE PUSH32 0x8C5BE1E5EBEC7D5BD14F71427D1E84F3DD0314C0F7B2291E5B200AC8C7C3B925 SWAP2 ADD JUMPDEST PUSH1 0x40 MLOAD DUP1 SWAP2 SUB SWAP1 LOG3 POP POP POP JUMP JUMPDEST PUSH1 0x0 PUSH2 0xE37 DUP5 DUP5 PUSH2 0x824 JUMP JUMPDEST SWAP1 POP PUSH1 0x0 NOT DUP2 EQ PUSH2 0xE9F JUMPI DUP2 DUP2 LT ISZERO PUSH2 0xE92 JUMPI PUSH1 0x40 MLOAD PUSH3 0x461BCD PUSH1 0xE5 SHL DUP2 MSTORE PUSH1 0x20 PUSH1 0x4 DUP3 ADD MSTORE PUSH1 0x1D PUSH1 0x24 DUP3 ADD MSTORE PUSH32 0x45524332303A20696E73756666696369656E7420616C6C6F77616E6365000000 PUSH1 0x44 DUP3 ADD MSTORE PUSH1 0x64 ADD PUSH2 0x42D JUMP JUMPDEST PUSH2 0xE9F DUP5 DUP5 DUP5 DUP5 SUB PUSH2 0xD06 JUMP JUMPDEST POP POP POP POP JUMP JUMPDEST PUSH1 0x1 PUSH1 0x1 PUSH1 0xA0 SHL SUB DUP4 AND PUSH2 0xF09 JUMPI PUSH1 0x40 MLOAD PUSH3 0x461BCD PUSH1 0xE5 SHL DUP2 MSTORE PUSH1 0x20 PUSH1 0x4 DUP3 ADD MSTORE PUSH1 0x25 PUSH1 0x24 DUP3 ADD MSTORE PUSH32 0x45524332303A207472616E736665722066726F6D20746865207A65726F206164 PUSH1 0x44 DUP3 ADD MSTORE PUSH5 0x6472657373 PUSH1 0xD8 SHL PUSH1 0x64 DUP3 ADD MSTORE PUSH1 0x84 ADD PUSH2 0x42D JUMP JUMPDEST PUSH1 0x1 PUSH1 0x1 PUSH1 0xA0 SHL SUB DUP3 AND PUSH2 0xF6B JUMPI PUSH1 0x40 MLOAD PUSH3 0x461BCD PUSH1 0xE5 SHL DUP2 MSTORE PUSH1 0x20 PUSH1 0x4 DUP3 ADD MSTORE PUSH1 0x23 PUSH1 0x24 DUP3 ADD MSTORE PUSH32 0x45524332303A207472616E7366657220746F20746865207A65726F2061646472 PUSH1 0x44 DUP3 ADD MSTORE PUSH3 0x657373 PUSH1 0xE8 SHL PUSH1 0x64 DUP3 ADD MSTORE PUSH1 0x84 ADD PUSH2 0x42D JUMP JUMPDEST PUSH1 0x1 PUSH1 0x1 PUSH1 0xA0 SHL SUB DUP4 AND PUSH1 0x0 SWAP1 DUP2 MSTORE PUSH1 0x20 DUP2 SWAP1 MSTORE PUSH1 0x40 SWAP1 KECCAK256 SLOAD DUP2 DUP2 LT ISZERO PUSH2 0xFE3 JUMPI PUSH1 0x40 MLOAD PUSH3 0x461BCD PUSH1 0xE5 SHL DUP2 MSTORE PUSH1 0x20 PUSH1 0x4 DUP3 ADD MSTORE PUSH1 0x26 PUSH1 0x24 DUP3 ADD MSTORE PUSH32 0x45524332303A207472616E7366657220616D6F756E7420657863656564732062 PUSH1 0x44 DUP3 ADD MSTORE PUSH6 0x616C616E6365 PUSH1 0xD0 SHL PUSH1 0x64 DUP3 ADD MSTORE PUSH1 0x84 ADD PUSH2 0x42D JUMP JUMPDEST PUSH1 0x1 PUSH1 0x1 PUSH1 0xA0 SHL SUB DUP5 DUP2 AND PUSH1 0x0 DUP2 DUP2 MSTORE PUSH1 0x20 DUP2 DUP2 MSTORE PUSH1 0x40 DUP1 DUP4 KECCAK256 DUP8 DUP8 SUB SWAP1 SSTORE SWAP4 DUP8 AND DUP1 DUP4 MSTORE SWAP2 DUP5 SWAP1 KECCAK256 DUP1 SLOAD DUP8 ADD SWAP1 SSTORE SWAP3 MLOAD DUP6 DUP2 MSTORE SWAP1 SWAP3 PUSH1 0x0 DUP1 MLOAD PUSH1 0x20 PUSH2 0x1A47 DUP4 CODECOPY DUP2 MLOAD SWAP2 MSTORE SWAP2 ADD PUSH1 0x40 MLOAD DUP1 SWAP2 SUB SWAP1 LOG3 PUSH2 0xE9F JUMP JUMPDEST PUSH1 0x0 PUSH2 0x394 DUP3 DUP5 PUSH2 0x19C8 JUMP JUMPDEST PUSH1 0x0 PUSH2 0x394 DUP3 DUP5 PUSH2 0x19F5 JUMP JUMPDEST DUP3 ISZERO PUSH2 0x108B JUMPI DUP2 PUSH1 0x8 PUSH1 0x0 DUP3 DUP3 SLOAD PUSH2 0x1067 SWAP2 SWAP1 PUSH2 0x191C JUMP JUMPDEST SWAP3 POP POP DUP2 SWAP1 SSTORE POP DUP1 PUSH1 0x9 PUSH1 0x0 DUP3 DUP3 SLOAD PUSH2 0x1080 SWAP2 SWAP1 PUSH2 0x191C JUMP JUMPDEST SWAP1 SWAP2 SSTORE POP PUSH2 0x10BC SWAP1 POP JUMP JUMPDEST DUP2 PUSH1 0x8 PUSH1 0x0 DUP3 DUP3 SLOAD PUSH2 0x109D SWAP2 SWAP1 PUSH2 0x1A17 JUMP JUMPDEST SWAP3 POP POP DUP2 SWAP1 SSTORE POP DUP1 PUSH1 0x9 PUSH1 0x0 DUP3 DUP3 SLOAD PUSH2 0x10B6 SWAP2 SWAP1 PUSH2 0x1A17 JUMP JUMPDEST SWAP1 SWAP2 SSTORE POP POP JUMPDEST PUSH1 0x9 SLOAD PUSH1 0x8 SLOAD PUSH2 0x10CB SWAP2 PUSH2 0x1037 JUMP JUMPDEST PUSH1 0xA SSTORE POP POP POP JUMP JUMPDEST PUSH1 0x1 PUSH1 0x1 PUSH1 0xA0 SHL SUB DUP3 AND PUSH2 0x1133 JUMPI PUSH1 0x40 MLOAD PUSH3 0x461BCD PUSH1 0xE5 SHL DUP2 MSTORE PUSH1 0x20 PUSH1 0x4 DUP3 ADD MSTORE PUSH1 0x21 PUSH1 0x24 DUP3 ADD MSTORE PUSH32 0x45524332303A206275726E2066726F6D20746865207A65726F20616464726573 PUSH1 0x44 DUP3 ADD MSTORE PUSH1 0x73 PUSH1 0xF8 SHL PUSH1 0x64 DUP3 ADD MSTORE PUSH1 0x84 ADD PUSH2 0x42D JUMP JUMPDEST PUSH1 0x1 PUSH1 0x1 PUSH1 0xA0 SHL SUB DUP3 AND PUSH1 0x0 SWAP1 DUP2 MSTORE PUSH1 0x20 DUP2 SWAP1 MSTORE PUSH1 0x40 SWAP1 KECCAK256 SLOAD DUP2 DUP2 LT ISZERO PUSH2 0x11A7 JUMPI PUSH1 0x40 MLOAD PUSH3 0x461BCD PUSH1 0xE5 SHL DUP2 MSTORE PUSH1 0x20 PUSH1 0x4 DUP3 ADD MSTORE PUSH1 0x22 PUSH1 0x24 DUP3 ADD MSTORE PUSH32 0x45524332303A206275726E20616D6F756E7420657863656564732062616C616E PUSH1 0x44 DUP3 ADD MSTORE PUSH2 0x6365 PUSH1 0xF0 SHL PUSH1 0x64 DUP3 ADD MSTORE PUSH1 0x84 ADD PUSH2 0x42D JUMP JUMPDEST PUSH1 0x1 PUSH1 0x1 PUSH1 0xA0 SHL SUB DUP4 AND PUSH1 0x0 DUP2 DUP2 MSTORE PUSH1 0x20 DUP2 DUP2 MSTORE PUSH1 0x40 DUP1 DUP4 KECCAK256 DUP7 DUP7 SUB SWAP1 SSTORE PUSH1 0x2 DUP1 SLOAD DUP8 SWAP1 SUB SWAP1 SSTORE MLOAD DUP6 DUP2 MSTORE SWAP2 SWAP3 SWAP2 PUSH1 0x0 DUP1 MLOAD PUSH1 0x20 PUSH2 0x1A47 DUP4 CODECOPY DUP2 MLOAD SWAP2 MSTORE SWAP2 ADD PUSH2 0xE1E JUMP JUMPDEST POP POP POP JUMP JUMPDEST PUSH1 0x0 DUP2 PUSH1 0x0 SUB PUSH2 0x1202 JUMPI POP PUSH1 0x0 SWAP2 SWAP1 POP JUMP JUMPDEST PUSH1 0x0 PUSH1 0x1 PUSH2 0x120F DUP5 PUSH2 0x1462 JUMP JUMPDEST SWAP1 SHR PUSH1 0x1 SWAP1 SHL SWAP1 POP PUSH1 0x1 DUP2 DUP5 DUP2 PUSH2 0x1228 JUMPI PUSH2 0x1228 PUSH2 0x19DF JUMP JUMPDEST DIV DUP3 ADD SWAP1 SHR SWAP1 POP PUSH1 0x1 DUP2 DUP5 DUP2 PUSH2 0x1240 JUMPI PUSH2 0x1240 PUSH2 0x19DF JUMP JUMPDEST DIV DUP3 ADD SWAP1 SHR SWAP1 POP PUSH1 0x1 DUP2 DUP5 DUP2 PUSH2 0x1258 JUMPI PUSH2 0x1258 PUSH2 0x19DF JUMP JUMPDEST DIV DUP3 ADD SWAP1 SHR SWAP1 POP PUSH1 0x1 DUP2 DUP5 DUP2 PUSH2 0x1270 JUMPI PUSH2 0x1270 PUSH2 0x19DF JUMP JUMPDEST DIV DUP3 ADD SWAP1 SHR SWAP1 POP PUSH1 0x1 DUP2 DUP5 DUP2 PUSH2 0x1288 JUMPI PUSH2 0x1288 PUSH2 0x19DF JUMP JUMPDEST DIV DUP3 ADD SWAP1 SHR SWAP1 POP PUSH1 0x1 DUP2 DUP5 DUP2 PUSH2 0x12A0 JUMPI PUSH2 0x12A0 PUSH2 0x19DF JUMP JUMPDEST DIV DUP3 ADD SWAP1 SHR SWAP1 POP PUSH1 0x1 DUP2 DUP5 DUP2 PUSH2 0x12B8 JUMPI PUSH2 0x12B8 PUSH2 0x19DF JUMP JUMPDEST DIV DUP3 ADD SWAP1 SHR SWAP1 POP PUSH2 0x394 DUP2 DUP3 DUP6 DUP2 PUSH2 0x12D2 JUMPI PUSH2 0x12D2 PUSH2 0x19DF JUMP JUMPDEST DIV JUMPDEST PUSH1 0x0 DUP2 DUP4 LT PUSH2 0x12E3 JUMPI DUP2 PUSH2 0x394 JUMP JUMPDEST POP SWAP1 SWAP2 SWAP1 POP JUMP JUMPDEST PUSH1 0x40 DUP1 MLOAD PUSH1 0x1 PUSH1 0x1 PUSH1 0xA0 SHL SUB DUP6 DUP2 AND PUSH1 0x24 DUP4 ADD MSTORE DUP5 AND PUSH1 0x44 DUP3 ADD MSTORE PUSH1 0x64 DUP1 DUP3 ADD DUP5 SWAP1 MSTORE DUP3 MLOAD DUP1 DUP4 SUB SWAP1 SWAP2 ADD DUP2 MSTORE PUSH1 0x84 SWAP1 SWAP2 ADD SWAP1 SWAP2 MSTORE PUSH1 0x20 DUP2 ADD DUP1 MLOAD PUSH1 0x1 PUSH1 0x1 PUSH1 0xE0 SHL SUB AND PUSH4 0x23B872DD PUSH1 0xE0 SHL OR SWAP1 MSTORE PUSH2 0xE9F SWAP1 DUP6 SWAP1 PUSH2 0x14F6 JUMP JUMPDEST PUSH1 0x1 PUSH1 0x1 PUSH1 0xA0 SHL SUB DUP3 AND PUSH2 0x139A JUMPI PUSH1 0x40 MLOAD PUSH3 0x461BCD PUSH1 0xE5 SHL DUP2 MSTORE PUSH1 0x20 PUSH1 0x4 DUP3 ADD MSTORE PUSH1 0x1F PUSH1 0x24 DUP3 ADD MSTORE PUSH32 0x45524332303A206D696E7420746F20746865207A65726F206164647265737300 PUSH1 0x44 DUP3 ADD MSTORE PUSH1 0x64 ADD PUSH2 0x42D JUMP JUMPDEST DUP1 PUSH1 0x2 PUSH1 0x0 DUP3 DUP3 SLOAD PUSH2 0x13AC SWAP2 SWAP1 PUSH2 0x191C JUMP JUMPDEST SWAP1 SWAP2 SSTORE POP POP PUSH1 0x1 PUSH1 0x1 PUSH1 0xA0 SHL SUB DUP3 AND PUSH1 0x0 DUP2 DUP2 MSTORE PUSH1 0x20 DUP2 DUP2 MSTORE PUSH1 0x40 DUP1 DUP4 KECCAK256 DUP1 SLOAD DUP7 ADD SWAP1 SSTORE MLOAD DUP5 DUP2 MSTORE PUSH1 0x0 DUP1 MLOAD PUSH1 0x20 PUSH2 0x1A47 DUP4 CODECOPY DUP2 MLOAD SWAP2 MSTORE SWAP2 ADD PUSH1 0x40 MLOAD DUP1 SWAP2 SUB SWAP1 LOG3 POP POP JUMP JUMPDEST PUSH1 0x2 PUSH1 0x5 SLOAD SUB PUSH2 0x1443 JUMPI PUSH1 0x40 MLOAD PUSH3 0x461BCD PUSH1 0xE5 SHL DUP2 MSTORE PUSH1 0x20 PUSH1 0x4 DUP3 ADD MSTORE PUSH1 0x1F PUSH1 0x24 DUP3 ADD MSTORE PUSH32 0x5265656E7472616E637947756172643A207265656E7472616E742063616C6C00 PUSH1 0x44 DUP3 ADD MSTORE PUSH1 0x64 ADD PUSH2 0x42D JUMP JUMPDEST PUSH1 0x2 PUSH1 0x5 SSTORE JUMP JUMPDEST PUSH1 0x0 PUSH2 0x394 DUP3 DUP5 PUSH2 0x191C JUMP JUMPDEST PUSH1 0x0 PUSH2 0x394 DUP3 DUP5 PUSH2 0x1A17 JUMP JUMPDEST PUSH1 0x0 DUP1 PUSH1 0x80 DUP4 SWAP1 SHR ISZERO PUSH2 0x1477 JUMPI PUSH1 0x80 SWAP3 DUP4 SHR SWAP3 ADD JUMPDEST PUSH1 0x40 DUP4 SWAP1 SHR ISZERO PUSH2 0x1489 JUMPI PUSH1 0x40 SWAP3 DUP4 SHR SWAP3 ADD JUMPDEST PUSH1 0x20 DUP4 SWAP1 SHR ISZERO PUSH2 0x149B JUMPI PUSH1 0x20 SWAP3 DUP4 SHR SWAP3 ADD JUMPDEST PUSH1 0x10 DUP4 SWAP1 SHR ISZERO PUSH2 0x14AD JUMPI PUSH1 0x10 SWAP3 DUP4 SHR SWAP3 ADD JUMPDEST PUSH1 0x8 DUP4 SWAP1 SHR ISZERO PUSH2 0x14BF JUMPI PUSH1 0x8 SWAP3 DUP4 SHR SWAP3 ADD JUMPDEST PUSH1 0x4 DUP4 SWAP1 SHR ISZERO PUSH2 0x14D1 JUMPI PUSH1 0x4 SWAP3 DUP4 SHR SWAP3 ADD JUMPDEST PUSH1 0x2 DUP4 SWAP1 SHR ISZERO PUSH2 0x14E3 JUMPI PUSH1 0x2 SWAP3 DUP4 SHR SWAP3 ADD JUMPDEST PUSH1 0x1 DUP4 SWAP1 SHR ISZERO PUSH2 0x36F JUMPI PUSH1 0x1 ADD SWAP3 SWAP2 POP POP JUMP JUMPDEST PUSH1 0x0 PUSH2 0x154B DUP3 PUSH1 0x40 MLOAD DUP1 PUSH1 0x40 ADD PUSH1 0x40 MSTORE DUP1 PUSH1 0x20 DUP2 MSTORE PUSH1 0x20 ADD PUSH32 0x5361666545524332303A206C6F772D6C6576656C2063616C6C206661696C6564 DUP2 MSTORE POP DUP6 PUSH1 0x1 PUSH1 0x1 PUSH1 0xA0 SHL SUB AND PUSH2 0x15C8 SWAP1 SWAP3 SWAP2 SWAP1 PUSH4 0xFFFFFFFF AND JUMP JUMPDEST DUP1 MLOAD SWAP1 SWAP2 POP ISZERO PUSH2 0x11EB JUMPI DUP1 DUP1 PUSH1 0x20 ADD SWAP1 MLOAD DUP2 ADD SWAP1 PUSH2 0x1569 SWAP2 SWAP1 PUSH2 0x1948 JUMP JUMPDEST PUSH2 0x11EB JUMPI PUSH1 0x40 MLOAD PUSH3 0x461BCD PUSH1 0xE5 SHL DUP2 MSTORE PUSH1 0x20 PUSH1 0x4 DUP3 ADD MSTORE PUSH1 0x2A PUSH1 0x24 DUP3 ADD MSTORE PUSH32 0x5361666545524332303A204552433230206F7065726174696F6E20646964206E PUSH1 0x44 DUP3 ADD MSTORE PUSH10 0x1BDD081CDD58D8D95959 PUSH1 0xB2 SHL PUSH1 0x64 DUP3 ADD MSTORE PUSH1 0x84 ADD PUSH2 0x42D JUMP JUMPDEST PUSH1 0x60 PUSH2 0x15D7 DUP5 DUP5 PUSH1 0x0 DUP6 PUSH2 0x15DF JUMP JUMPDEST SWAP5 SWAP4 POP POP POP POP JUMP JUMPDEST PUSH1 0x60 DUP3 SELFBALANCE LT ISZERO PUSH2 0x1640 JUMPI PUSH1 0x40 MLOAD PUSH3 0x461BCD PUSH1 0xE5 SHL DUP2 MSTORE PUSH1 0x20 PUSH1 0x4 DUP3 ADD MSTORE PUSH1 0x26 PUSH1 0x24 DUP3 ADD MSTORE PUSH32 0x416464726573733A20696E73756666696369656E742062616C616E636520666F PUSH1 0x44 DUP3 ADD MSTORE PUSH6 0x1C8818D85B1B PUSH1 0xD2 SHL PUSH1 0x64 DUP3 ADD MSTORE PUSH1 0x84 ADD PUSH2 0x42D JUMP JUMPDEST PUSH1 0x0 DUP1 DUP7 PUSH1 0x1 PUSH1 0x1 PUSH1 0xA0 SHL SUB AND DUP6 DUP8 PUSH1 0x40 MLOAD PUSH2 0x165C SWAP2 SWAP1 PUSH2 0x1A2A JUMP JUMPDEST PUSH1 0x0 PUSH1 0x40 MLOAD DUP1 DUP4 SUB DUP2 DUP6 DUP8 GAS CALL SWAP3 POP POP POP RETURNDATASIZE DUP1 PUSH1 0x0 DUP2 EQ PUSH2 0x1699 JUMPI PUSH1 0x40 MLOAD SWAP2 POP PUSH1 0x1F NOT PUSH1 0x3F RETURNDATASIZE ADD AND DUP3 ADD PUSH1 0x40 MSTORE RETURNDATASIZE DUP3 MSTORE RETURNDATASIZE PUSH1 0x0 PUSH1 0x20 DUP5 ADD RETURNDATACOPY PUSH2 0x169E JUMP JUMPDEST PUSH1 0x60 SWAP2 POP JUMPDEST POP SWAP2 POP SWAP2 POP PUSH2 0x16AF DUP8 DUP4 DUP4 DUP8 PUSH2 0x16BA JUMP JUMPDEST SWAP8 SWAP7 POP POP POP POP POP POP POP JUMP JUMPDEST PUSH1 0x60 DUP4 ISZERO PUSH2 0x1727 JUMPI DUP3 MLOAD PUSH1 0x0 SUB PUSH2 0x1720 JUMPI PUSH2 0x16D4 DUP6 PUSH2 0xCF7 JUMP JUMPDEST PUSH2 0x1720 JUMPI PUSH1 0x40 MLOAD PUSH3 0x461BCD PUSH1 0xE5 SHL DUP2 MSTORE PUSH1 0x20 PUSH1 0x4 DUP3 ADD MSTORE PUSH1 0x1D PUSH1 0x24 DUP3 ADD MSTORE PUSH32 0x416464726573733A2063616C6C20746F206E6F6E2D636F6E7472616374000000 PUSH1 0x44 DUP3 ADD MSTORE PUSH1 0x64 ADD PUSH2 0x42D JUMP JUMPDEST POP DUP2 PUSH2 0x15D7 JUMP JUMPDEST PUSH2 0x15D7 DUP4 DUP4 DUP2 MLOAD ISZERO PUSH2 0x173C JUMPI DUP2 MLOAD DUP1 DUP4 PUSH1 0x20 ADD REVERT JUMPDEST DUP1 PUSH1 0x40 MLOAD PUSH3 0x461BCD PUSH1 0xE5 SHL DUP2 MSTORE PUSH1 0x4 ADD PUSH2 0x42D SWAP2 SWAP1 PUSH2 0x177A JUMP JUMPDEST PUSH1 0x0 JUMPDEST DUP4 DUP2 LT ISZERO PUSH2 0x1771 JUMPI DUP2 DUP2 ADD MLOAD DUP4 DUP3 ADD MSTORE PUSH1 0x20 ADD PUSH2 0x1759 JUMP JUMPDEST POP POP PUSH1 0x0 SWAP2 ADD MSTORE JUMP JUMPDEST PUSH1 0x20 DUP2 MSTORE PUSH1 0x0 DUP3 MLOAD DUP1 PUSH1 0x20 DUP5 ADD MSTORE PUSH2 0x1799 DUP2 PUSH1 0x40 DUP6 ADD PUSH1 0x20 DUP8 ADD PUSH2 0x1756 JUMP JUMPDEST PUSH1 0x1F ADD PUSH1 0x1F NOT AND SWAP2 SWAP1 SWAP2 ADD PUSH1 0x40 ADD SWAP3 SWAP2 POP POP JUMP JUMPDEST DUP1 CALLDATALOAD PUSH1 0x1 PUSH1 0x1 PUSH1 0xA0 SHL SUB DUP2 AND DUP2 EQ PUSH2 0x17C4 JUMPI PUSH1 0x0 DUP1 REVERT JUMPDEST SWAP2 SWAP1 POP JUMP JUMPDEST PUSH1 0x0 DUP1 PUSH1 0x40 DUP4 DUP6 SUB SLT ISZERO PUSH2 0x17DC JUMPI PUSH1 0x0 DUP1 REVERT JUMPDEST PUSH2 0x17E5 DUP4 PUSH2 0x17AD JUMP JUMPDEST SWAP5 PUSH1 0x20 SWAP4 SWAP1 SWAP4 ADD CALLDATALOAD SWAP4 POP POP POP JUMP JUMPDEST PUSH1 0x1 PUSH1 0x1 PUSH1 0xA0 SHL SUB SWAP2 SWAP1 SWAP2 AND DUP2 MSTORE PUSH1 0x20 ADD SWAP1 JUMP JUMPDEST PUSH1 0x0 DUP1 PUSH1 0x0 PUSH1 0x60 DUP5 DUP7 SUB SLT ISZERO PUSH2 0x181C JUMPI PUSH1 0x0 DUP1 REVERT JUMPDEST PUSH2 0x1825 DUP5 PUSH2 0x17AD JUMP JUMPDEST SWAP3 POP PUSH2 0x1833 PUSH1 0x20 DUP6 ADD PUSH2 0x17AD JUMP JUMPDEST SWAP2 POP PUSH1 0x40 DUP5 ADD CALLDATALOAD SWAP1 POP SWAP3 POP SWAP3 POP SWAP3 JUMP JUMPDEST PUSH1 0x0 PUSH1 0x20 DUP3 DUP5 SUB SLT ISZERO PUSH2 0x1855 JUMPI PUSH1 0x0 DUP1 REVERT JUMPDEST PUSH2 0x394 DUP3 PUSH2 0x17AD JUMP JUMPDEST PUSH1 0x0 PUSH1 0x20 DUP3 DUP5 SUB SLT ISZERO PUSH2 0x1870 JUMPI PUSH1 0x0 DUP1 REVERT JUMPDEST POP CALLDATALOAD SWAP2 SWAP1 POP JUMP JUMPDEST PUSH1 0x0 DUP1 PUSH1 0x40 DUP4 DUP6 SUB SLT ISZERO PUSH2 0x188A JUMPI PUSH1 0x0 DUP1 REVERT JUMPDEST POP POP DUP1 CALLDATALOAD SWAP3 PUSH1 0x20 SWAP1 SWAP2 ADD CALLDATALOAD SWAP2 POP JUMP JUMPDEST PUSH1 0x0 DUP1 PUSH1 0x40 DUP4 DUP6 SUB SLT ISZERO PUSH2 0x18AC JUMPI PUSH1 0x0 DUP1 REVERT JUMPDEST PUSH2 0x18B5 DUP4 PUSH2 0x17AD JUMP JUMPDEST SWAP2 POP PUSH2 0x18C3 PUSH1 0x20 DUP5 ADD PUSH2 0x17AD JUMP JUMPDEST SWAP1 POP SWAP3 POP SWAP3 SWAP1 POP JUMP JUMPDEST PUSH1 0x1 DUP2 DUP2 SHR SWAP1 DUP3 AND DUP1 PUSH2 0x18E0 JUMPI PUSH1 0x7F DUP3 AND SWAP2 POP JUMPDEST PUSH1 0x20 DUP3 LT DUP2 SUB PUSH2 0x1900 JUMPI PUSH4 0x4E487B71 PUSH1 0xE0 SHL PUSH1 0x0 MSTORE PUSH1 0x22 PUSH1 0x4 MSTORE PUSH1 0x24 PUSH1 0x0 REVERT JUMPDEST POP SWAP2 SWAP1 POP JUMP JUMPDEST PUSH4 0x4E487B71 PUSH1 0xE0 SHL PUSH1 0x0 MSTORE PUSH1 0x11 PUSH1 0x4 MSTORE PUSH1 0x24 PUSH1 0x0 REVERT JUMPDEST DUP1 DUP3 ADD DUP1 DUP3 GT ISZERO PUSH2 0x36F JUMPI PUSH2 0x36F PUSH2 0x1906 JUMP JUMPDEST PUSH1 0x1 PUSH1 0x1 PUSH1 0xA0 SHL SUB SWAP3 SWAP1 SWAP3 AND DUP3 MSTORE PUSH1 0x20 DUP3 ADD MSTORE PUSH1 0x40 ADD SWAP1 JUMP JUMPDEST PUSH1 0x0 PUSH1 0x20 DUP3 DUP5 SUB SLT ISZERO PUSH2 0x195A JUMPI PUSH1 0x0 DUP1 REVERT JUMPDEST DUP2 MLOAD DUP1 ISZERO ISZERO DUP2 EQ PUSH2 0x394 JUMPI PUSH1 0x0 DUP1 REVERT JUMPDEST PUSH1 0x20 DUP1 DUP3 MSTORE PUSH1 0x25 SWAP1 DUP3 ADD MSTORE PUSH32 0x53696D706C65537761703A20494E53554646494349454E545F494E5055545F41 PUSH1 0x40 DUP3 ADD MSTORE PUSH5 0x1353D55395 PUSH1 0xDA SHL PUSH1 0x60 DUP3 ADD MSTORE PUSH1 0x80 ADD SWAP1 JUMP JUMPDEST PUSH1 0x0 PUSH1 0x20 DUP3 DUP5 SUB SLT ISZERO PUSH2 0x19C1 JUMPI PUSH1 0x0 DUP1 REVERT JUMPDEST POP MLOAD SWAP2 SWAP1 POP JUMP JUMPDEST DUP1 DUP3 MUL DUP2 ISZERO DUP3 DUP3 DIV DUP5 EQ OR PUSH2 0x36F JUMPI PUSH2 0x36F PUSH2 0x1906 JUMP JUMPDEST PUSH4 0x4E487B71 PUSH1 0xE0 SHL PUSH1 0x0 MSTORE PUSH1 0x12 PUSH1 0x4 MSTORE PUSH1 0x24 PUSH1 0x0 REVERT JUMPDEST PUSH1 0x0 DUP3 PUSH2 0x1A12 JUMPI PUSH4 0x4E487B71 PUSH1 0xE0 SHL PUSH1 0x0 MSTORE PUSH1 0x12 PUSH1 0x4 MSTORE PUSH1 0x24 PUSH1 0x0 REVERT JUMPDEST POP DIV SWAP1 JUMP JUMPDEST DUP2 DUP2 SUB DUP2 DUP2 GT ISZERO PUSH2 0x36F JUMPI PUSH2 0x36F PUSH2 0x1906 JUMP JUMPDEST PUSH1 0x0 DUP3 MLOAD PUSH2 0x1A3C DUP2 DUP5 PUSH1 0x20 DUP8 ADD PUSH2 0x1756 JUMP JUMPDEST SWAP2 SWAP1 SWAP2 ADD SWAP3 SWAP2 POP POP JUMP INVALID 0xDD CALLCODE MSTORE 0xAD SHL 0xE2 0xC8 SWAP12 PUSH10 0xC2B068FC378DAA952BA7 CALL PUSH4 0xC4A11628 CREATE2 GAS 0x4D CREATE2 0x23 0xB3 0xEF LOG2 PUSH5 0x6970667358 0x22 SLT KECCAK256 0x4A LOG0 0xCB 0xA5 SAR MUL ADDRESS PUSH8 0xE2C0A5D15B51F320 CREATE CODESIZE CALLDATASIZE 0xE7 0x49 RETURNDATASIZE SWAP12 SWAP14 0xFB CALLER 0xAC PUSH32 0x8BD72AF864736F6C634300081100330000000000000000000000000000000000 "},"methodIdentifiers":{"addLiquidity(uint256,uint256)":"9cd441da","allowance(address,address)":"dd62ed3e","approve(address,uint256)":"095ea7b3","balanceOf(address)":"70a08231","decimals()":"313ce567","decreaseAllowance(address,uint256)":"a457c2d7","getReserves()":"0902f1ac","getTokenA()":"ae0ba2fb","getTokenB()":"0f0148ea","increaseAllowance(address,uint256)":"39509351","name()":"06fdde03","removeLiquidity(uint256)":"9c8f9f23","swap(address,address,uint256)":"df791e50","symbol()":"95d89b41","tokenA()":"0fc63d10","tokenB()":"5f64b55b","totalSupply()":"18160ddd","transfer(address,uint256)":"a9059cbb","transferFrom(address,address,uint256)":"23b872dd"}},"storageLayout":{"storage":[{"astId":69,"contract":"contracts/SimpleSwap.sol:SimpleSwap","label":"_balances","offset":0,"slot":"0","type":"t_mapping(t_address,t_uint256)"},{"astId":75,"contract":"contracts/SimpleSwap.sol:SimpleSwap","label":"_allowances","offset":0,"slot":"1","type":"t_mapping(t_address,t_mapping(t_address,t_uint256))"},{"astId":77,"contract":"contracts/SimpleSwap.sol:SimpleSwap","label":"_totalSupply","offset":0,"slot":"2","type":"t_uint256"},{"astId":79,"contract":"contracts/SimpleSwap.sol:SimpleSwap","label":"_name","offset":0,"slot":"3","type":"t_string_storage"},{"astId":81,"contract":"contracts/SimpleSwap.sol:SimpleSwap","label":"_symbol","offset":0,"slot":"4","type":"t_string_storage"},{"astId":10,"contract":"contracts/SimpleSwap.sol:SimpleSwap","label":"_status","offset":0,"slot":"5","type":"t_uint256"},{"astId":2616,"contract":"contracts/SimpleSwap.sol:SimpleSwap","label":"tokenA","offset":0,"slot":"6","type":"t_address"},{"astId":2618,"contract":"contracts/SimpleSwap.sol:SimpleSwap","label":"tokenB","offset":0,"slot":"7","type":"t_address"},{"astId":2620,"contract":"contracts/SimpleSwap.sol:SimpleSwap","label":"_reserveA","offset":0,"slot":"8","type":"t_uint256"},{"astId":2622,"contract":"contracts/SimpleSwap.sol:SimpleSwap","label":"_reserveB","offset":0,"slot":"9","type":"t_uint256"},{"astId":2624,"contract":"contracts/SimpleSwap.sol:SimpleSwap","label":"_kValue","offset":0,"slot":"10","type":"t_uint256"}],"types":{"t_address":{"encoding":"inplace","label":"address","numberOfBytes":"20"},"t_mapping(t_address,t_mapping(t_address,t_uint256))":{"encoding":"mapping","key":"t_address","label":"mapping(address => mapping(address => uint256))","numberOfBytes":"32","value":"t_mapping(t_address,t_uint256)"},"t_mapping(t_address,t_uint256)":{"encoding":"mapping","key":"t_address","label":"mapping(address => uint256)","numberOfBytes":"32","value":"t_uint256"},"t_string_storage":{"encoding":"bytes","label":"string","numberOfBytes":"32"},"t_uint256":{"encoding":"inplace","label":"uint256","numberOfBytes":"32"}}}}}}